S00D000049324376312E73726563B2
S11300000C94FE000C941F010C941F010C941F010E
S11300100C941F010C941F010C941F010C941F01DC
S11300200C941F010C941F010C941F010C941F01CC
S11300300C941F010C941F010C941F010C941F01BC
S11300400C941F010C941F010C941F010C941F01AC
S11300500C941F010C941F010C941F010C941F019C
S11300600C941F010C941F010C941F010C941F018C
S11300700C941F010C941F010C941F010C941F017C
S11300800C941F010C941F010C941F010C941F016C
S11300900C941F010C941F010C941F010C941F015C
S11300A00C941F010C941F010C941F010C941F014C
S11300B00C941F010C941F010C941F010C941F013C
S11300C00C941F010C941F010C941F010C941F012C
S11300D00C941F010C941F010C941F010C941F011C
S11300E00C941F010C941F010C941F010C941F010C
S11300F00C941F010C941F010C941F010C941F01FC
S11301000C941F010C941F010C941F010C941F01EB
S11301100C941F010C941F010C941F010C941F01DB
S11301200C941F010C941F010C941F010C941F01CB
S11301300C941F010C941F010C941F010C941F01BB
S11301400C941F010C941F010C941F010C941F01AB
S11301500C941F010C941F010C941F010C941F019B
S11301600C941F010C941F010C941F010C941F018B
S11301700C941F010C941F010C941F010C941F017B
S11301800C941F010C941F010C941F010C941F016B
S11301900C941F010C941F010C941F010C941F015B
S11301A00C941F010C941F010C941F010C941F014B
S11301B00C94950D0C941F010C941F010C941F01B9
S11301C00C941F010C941F010C941F010C941F012B
S11301D00C941F010C941F010C941F010C941F011B
S11301E00C941F010C941F010C941F010C941F010B
S11301F00C941F010C941F010C941F0111241FBEA9
S1130200CFEFCDBFDFE5DEBF00E00CBF1FE2A0E013
S1130210B0E2E4EDF6E200E00BBF02C007900D92FD
S1130220AA36B107D9F721E3AAE6BFE201C01D92BD
S1130230A237B207E1F70E946F070C9468130C947D
S11302400000CF93DF931F92CDB7DEB78DE0898393
S113025061E0CE0101960E940B020F90DF91CF91D5
S11302600895CF93DF931F921F92CDB7DEB790E12D
S113027099834150463010F4942F01C095E020E258
S1130280629FA0011124482B492B4A8362E0CE01CE
S113029001960E940B020F900F90DF91CF91089569
S11302A0CF93DF931F921F92CDB7DEB789836A8302
S11302B062E0CE0101960E940B020F900F90DF9135
S11302C0CF9108950F931F93CF93C82FDB018C9187
S11302D08823D1F1C630C0F5E0EDE80FEA30B8F07C
S11302E09FEB980F963018F4E9ECE80F10C09FE9E3
S11302F0980F963018F4E9EAE80F09C08D3221F01E
S1130300803221F0E2E103C0E0E101C0E1E10E2E20
S1130310000CFF0BE050F04E608111968C91119708
S11303208E3229F460688D010F5F1F4F01C08D016B
S11303308C2F0E945001C150D8011196F80181817F
S1130340882311F0C63040F2CF911F910F91089588
S1130350CF93DF931F921F92CDB7DEB742E0BE0169
S11303606F5F7F4F89E40E94430289819A810F90D5
S11303700F90DF91CF910895CF93DF93CDB7DEB780
S11303802597CDBFDEBF98E19983877090E1899F5F
S113039090011124282B2A832B832C832D8365E041
S11303A0CE0101960E940B022596CDBFDEBFDF91E0
S11303B0CF910895CF93DF9300D01F92CDB7DEB7CE
S11303C091E19983877090E1899F90011124282BF2
S11303D02A832B832C8364E0CE0101960E940B02B6
S11303E02496CDBFDEBFDF91CF910895A0EBB0E09E
S11303F021E02C93E0E8F6E088E1808B218392E011
S11304009C93108A918384E08C93108A8183258342
S1130410958385830895E0E8F6E021E0218324E0D4
S1130420268325E02A95F1F70000662321F1DC01FB
S1130430615070E06F5F7F4F680F791F42E051E0B9
S113044017C046839C91932311F0558301C05683B2
S113045082E08A95F1F700C0458382E08A95F1F73E
S113046000C0330F215069F711966A177B0719F002
S113047028E031E0E6CF25E02A95F1F7000084E09A
S1130480809385060895CF93DF93DB01E0E8F6E0DF
S113049091E0918394E0968335E03A95F1F700007A
S11304A028E091E032E071E03683582F592311F0AF
S11304B0758301C0768352E05A95F1F700C0358305
S11304C052E05A95F1F700C0990F215069F785E081
S11304D08A95F1F7000081E080938206442331F18C
S11304E0ED014150842F90E00196BD01680F791F02
S11304F0E0E8F6E022E0DE01188288E091E026835D
S113050032E03A95F1F700C0258352E05A95F1F7AD
S113051000C0308530FF03C03C91392B3C93990FC8
S1130520815069F72196C617D70729F784E080938D
S11305308506DF91CF910895EF92FF920F931F9359
S1130540E12C01E021E040E068E080E096E00E94D8
S1130550240D00E021E040E061E080E696E00E94A6
S1130560240D68E080EA96E00E942D1043E062E0EA
S113057080E696E00E94201068E080E696E00E9403
S11305808C0E60EC80EA99E00E94870E40E063E004
S113059080EA99E00E943410E12C14E2F12E04EF79
S11305A010E020E432E44FE050E060E080EA99E0BB
S11305B00E94F10FE0EAF9E08481886084838481F9
S11305C0806184831F910F91FF90EF90089591E0D3
S11305D0813009F090E0892F8195EEE6FFE22EE666
S11305E031E38193E217F307E1F72FE740E063E09B
S11305F080E00E94F805089510926D2F10926C2FE0
S11306008FEF9BE280936A2F90936B2F08950E9443
S1130610D2040E94FC020895813061F018F0823007
S113062089F018C08FEF9BE280936A2F90936B2F11
S113063080E0089585E897E280936A2F90936B2F6A
S113064081E0089583E190E280936A2F90936B2F69
S113065082E008958FEF0895882314F080936D2F1E
S1130660603210F460936C2F08952F923F924F9252
S11306705F927F928F929F92AF92BF92CF92DF92BE
S1130680EF92FF920F931F93CF93DF9300D01F92AB
S1130690CDB7DEB7E0916A2FF0916B2F22818217DC
S11306A008F4EAC09381981708F4E8C041813091B6
S11306B06C2FE42EE30E9FEF9E0D903208F0E0C005
S11306C05081F0906D2FC52ECF0CCA94CC200CF421
S11306D0D9C0D62E732E769476947694E92EE69429
S11306E0E694E694642F66956695669570E06F5F70
S11306F07F4F90E0821B9109689FF001699FF00D84
S1130700789FF00D11245E9F40015F9F900C11248F
S11307108B829C8280E290E0841B91094FEF5FEF13
S1130720BA014A015B0104C0B694A79497948794D4
S11307308A95D2F7D501C4013770A32EB12CA982B2
S1130740BA821C012D0104C0220C331C441C551C0C
S11307503A95D2F7CF1408F47CC052014101809439
S11307609094A094B0944F2D6E2D872D0E94A006D6
S11307708B019C01E0916A2FF0916B2F648175814C
S1130780AB81BC81A60FB71F8C9190E0A0E0B0E0D4
S11307904B815C814F5F5F4FE181E930A0F0FB0149
S11307A0E40FF51F408150E0542F442760E070E0CF
S11307B0842B952BA62BB72B4B815C814E5F5F4F0F
S11307C04B835C8302C04B835C83098004C0880F25
S11307D0991FAA1FBB1F0A94D2F751E0D516B9F08E
S11307E0D51620F042E0D416F9F02AC0B201A101D6
S11307F0402B512B622B732B80959095A095B0952F
S11308008C019D01042315232623372319C0B50128
S1130810A40140235123622373238C019D01042BE3
S1130820152B262B372B0CC0B201A10140275127D1
S1130830622773278C019D01042715272627372754
S11308404F2D6E2D872D0E94D706F394CF1408F0F8
S11308508ACF2C2D40916D2F6E2D872D0E94F80587
S1130860E0916A2FF0916B2F90916D2F8081890F09
S113087080936D2F80E007C081E005C081E003C054
S113088082E001C083E02496CDBFDEBFDF91CF912B
S11308901F910F91FF90EF90DF90CF90BF90AF909A
S11308A09F908F907F905F904F903F902F900895EE
S11308B01F93CF93DF93EC01162F8881882371F166
S11308C08D3021F410926D2FFE0123C08A3061F423
S11308D0E0916A2FF0916B2F90916C2F8181890F99
S11308E080936C2FFE0115C0612F0E943503833065
S11308F079F410926D2FE0916A2FF0916B2F909103
S11309006C2F8181890F80936C2FFE01319701C078
S1130910FE01EF01219681818111D2CFDF91CF9128
S11309201F9108958E3108F48EE1893208F088E22F
S113093098E09093A60691E090936606E0EAF9E0C9
S1130940918195FFFDCF91E89093A009E0EAF9E049
S1130950918196FFFDCFE0EAF9E091819064918363
S11309609081E0EAF6E098E09583282F20952F7394
S1130970968391E090936606E0EAF9E0918195FF11
S1130980FDCF2093A009E0EAF9E0918196FFFDCF25
S1130990E0EAF9E0918190649183908198E09093EA
S11309A0A50608951F93CF93DF93E0E0F6E088E077
S11309B0868395E39A95F1F70000858395E39A95EC
S11309C0F1F70000E0E6F6E091E096838093A60656
S11309D09683E0EAF9E0818185FFFDCF80EA809388
S11309E0A009E0EAF9E0818186FFFDCFE0EAF9E0C1
S11309F08181806481838081E0EAF6E088E08583F8
S1130A00868381E080936606E0EAF9E0818185FFD0
S1130A10FDCF86EA8093A009E0EAF9E0818186FFB0
S1130A20FDCFE0EAF9E08181806481838081E0EA9E
S1130A30F6E088E08583868381E080936606E0EAB9
S1130A40F9E0818185FFFDCF88EC8093A009E0EA7D
S1130A50F9E0818186FFFDCFE0EAF9E081818064DD
S1130A6081838081E0EAF6E088E08583868381E003
S1130A7080936606E0EAF9E0818185FFFDCF82EA92
S1130A808093A009E0EAF9E0818186FFFDCFE0EAE6
S1130A90F9E08181806481838081E0EAF6E088E086
S1130AA08583868381E080936606E0EAF9E08181AC
S1130AB085FFFDCF8FE28093A009E0EAF9E0818110
S1130AC086FFFDCFE0EAF9E0818180648183808143
S1130AD0E0EAF6E088E08583868381E08093660619
S1130AE0E0EAF9E0818185FFFDCF88EF8093A009DA
S1130AF0E0EAF9E0818186FFFDCFE0EAF9E0818157
S1130B00806481838081E0EAF6E088E085838683DF
S1130B1081E080936606E0EAF9E0818185FFFDCFFC
S1130B201092A009E0EAF9E0818186FFFDCFE0EAB6
S1130B30F9E08181806481838081E0EAF6E088E0E5
S1130B408583868381E080936606E0EAF9E081810B
S1130B5085FFFDCF81E28093A009E0EAF9E081817D
S1130B6086FFFDCFE0EAF9E08181806481838081A2
S1130B70C0EAD6E018E01D838EE10E9492041E8331
S1130B8081E080936606E0EAF9E0818185FFFDCF8C
S1130B908FEA8093A009E0EAF9E0818186FFFDCF26
S1130BA0E0EAF9E08181806481838081E0EAF6E013
S1130BB088E08583868381E080936606E0EAF9E035
S1130BC0818185FFFDCF80E48093A009E0EAF9E00C
S1130BD0818186FFFDCFE0EAF9E081818064818331
S1130BE0808188E08093A506DF91CF911F910895BD
S1130BF06F927F928F929F92AF92BF92CF92DF9229
S1130C00EF92FF920F931F93CF93DF93B82EA62EEC
S1130C10681708F486C0842F8F7782958F7080615F
S1130C20882EA0EAB6E088E00F2EF0E66F2EF6E0FC
S1130C307F2EF02DDD24D394E0EAF9E0942F9F7009
S1130C40992E042F10E0E22EF12C2B2D2F70206B07
S1130C5016968C931697E301DE82918195FFFDCF62
S1130C602083918196FFFDCF91819064918390813F
S1130C7015968C93159716968C931697E301DE823E
S1130C80918195FFFDCF8082918196FFFDCF918167
S1130C9090649183908115968C93159716968C93F6
S1130CA01697E301DE82918195FFFDCF90829181B9
S1130CB096FFFDCF918190649183908115968C93DA
S1130CC015979801D0E8BD9E200D311D1124B70160
S1130CD0620F731F6217730700F1A9014259504D47
S1130CE0EA01C990AE0116968C931697E301DD8252
S1130CF0918195FFFDCFC082918196FFFDCF9181B7
S1130D00906491839081E301DE8215968C9315970C
S1130D102F5F3F4F6217730718F7B394AB1408F0B3
S1130D2094CFDF91CF911F910F91FF90EF90DF90BF
S1130D30CF90BF90AF909F908F907F906F900895C9
S1130D40CF92DF92EF92FF92962FE42FF0E020E80B
S1130D50829FE00DF11D11246817F8F0E259F04D5F
S1130D6020E030E0C12CD12C7601408150E060E0DD
S1130D7070E0022E04C0440F551F661F771F0A94AB
S1130D80D2F7C42AD52AE62AF72A8F5FE058FF4F04
S1130D90285F3F4F981748F703C0C12CD12C760128
S1130DA0C701B601FF90EF90DF90CF9008950F93A5
S1130DB01F93E42FF0E090E8899FE00DF11D1124CA
S1130DC0681760F0E259F04D0083012F122F232F92
S1130DD033278F5FE058FF4F6817B0F71F910F91CB
S1130DE008952F923F928091480683FD10C085E0BC
S1130DF0EFE3FEE2D10101900D928A95E1F764E1FF
S1130E0084E60E942C0361E0C1010E945804809191
S1130E10480683FF11C08FE496E4F1018083918337
S1130E2086E490E08283938364E184E60E942C0349
S1130E3061E0C1010E9458043F902F9008952F92C1
S1130E403F928823CCF58F3F89F485E1E4E4FEE208
S1130E50D10101900D928A95E1F764E180E00E944E
S1130E602C0361E0C1010E94580436C0853F89F417
S1130E7085E1E9E5FEE2D10101900D928A95E1F761
S1130E8064E180E00E942C0361E0C1010E945804E7
S1130E9023C0843F09F585E1EEE6FEE2D10101902D
S1130EA00D928A95E1F764E180E00E942C0361E0F1
S1130EB0C1010E94580410C088E0EFE3FFE2D101B1
S1130EC001900D928A95E1F764E180E00E942C0381
S1130ED061E0C1010E9458043F902F900895CF9380
S1130EE0DF93CDB7DEB7A297CDBFDEBF7894E0E540
S1130EF0F0E0808182608083818181FFFDCF60E0AA
S1130F0084E00E943E0D81E00E94380D0E944D0D48
S1130F10E0E5F0E082E082838081886080838181E3
S1130F2083FFFDCF62E17AE780E690E00E94660DE0
S1130F3082E00E94460DFF24F394F0926000E0E505
S1130F40F0E080818E7F80830E94F6010E9421015F
S1130F5046E060E080E00E94310184E00E94DA0112
S1130F6082E00E94BC0160E47FE285E00E946201AD
S1130F70E12C00E021E040E060E180E896E00E949E
S1130F80240D80E1809385060E949C020E94070341
S1130F9080E00E94E7028EE10E94920481E00E94B8
S1130FA00C0360E080E00E942C0345E060E47CE9EF
S1130FB084E00E946A0D0E94860D6894EE24E6F88F
S1130FC020E040E06FE080E296E00E94240D20E003
S1130FD040E060EF80E096E00E94240D41E063E091
S1130FE080E496E00E94B30D00E014E224EF30E0C8
S1130FF040EA56E861E070E080E894E00E94C10DA8
S1131000E0E8F4E0818188608183F4820E94A80191
S11310102C018C8F9D8F89A39AA3198E66246394C7
S1131020712C00E010E09E012F5F3F4F49010E94A8
S1131030A8018F8B988FC20180959095CF88D88C0A
S1131040C822D922D6FE03C080E00E94E702140120
S11310500E94F10677204CF0A8014F5F5F4F4A8F42
S11310605B8F101611060CF48EC08EEE898B21E076
S1131070AE014F5E5F4F6FE480E894E00E94DD0DA7
S113108081EA898B6894EE24E1F88E010E5E1F4F8D
S113109021E0AE014F5E5F4F6FE480E894E00E9470
S11310A00C0EAA88B12CAA0CBB1C8B89881F88271C
S11310B0881FA82AC501880F991F880F991FA80E99
S11310C0B91EC501BB2024F4882799278A199B09D6
S11310D06AE070E00E9441109F938F93C5016AE01B
S11310E070E00E9441107F936F9383E89EE29F9388
S11310F08F939F928F920E948B1082EA898B6894BF
S1131100EE24E1F88E010E5E1F4F21E0AE014F5E2A
S11311105F4F6FE480E894E00E940C0E8A8990E0AF
S1131120880F991F2B89221F2227221F822B9C01A3
S1131130220F331F220F331FA901480F591F4E8F4F
S11311405F8FCA0155231CF49195819591096AE03A
S113115070E00E9441109F938F938E8D9F8D6AE063
S113116070E00E9441107F936F938FE89EE29F93FB
S11311708F939F928F920E948B10CDBFDEBF2FE181
S113118030E02A8F3B8FDD2034F4398D3F5F398F77
S113119036300CF0198EC7FE05C0498D4150498F79
S11311A0442344F1598D511111C085E1EBE9FEE26C
S11311B0D40101900D928A95E1F760E080E00E94ED
S11311C02C0361E0C4010E9458042AC0898D813037
S11311D099F485E1E0EBFEE2D40101900D928A9549
S11311E0E1F760E080E00E942C0361E0C4010E940A
S11311F058042AC095E0998F298D223089F485E11D
S1131200E5ECFEE2D40101900D928A95E1F760E0ED
S113121080E00E942C0361E0C4010E94580428C0AD
S1131220398D333089F485E1EAEDFEE2D401019091
S11312300D928A95E1F760E080E00E942C0361E062
S1131240C4010E94580428C0498D443089F483E1C4
S1131250EFEEFEE2D40101900D928A95E1F760E091
S113126080E00E942C0361E0C4010E945804A5C0E0
S1131270598D553089F485E1E2E0FFE2D401019013
S11312800D928A95E1F760E080E00E942C0361E012
S1131290C4010E94580419C1898D81118EC0C6FEF3
S11312A0E1C10F2EFAEAFF2EF02D0E94A8018F8BC8
S11312B0988F6201C094D094C822D92214010E944C
S11312C0F106C6FE4EC0F98A6894EE24E1F88E0158
S11312D00E5E1F4F21E0AE014F5E5F4F6FE480E86A
S11312E094E00E940C0E182F682E880F77082A8924
S11312F030E0220F331F8B89881F8827881F282BF3
S1131300C901880F991F880F991F280F391FC90118
S1131310332324F488279927821B930B6AE070E017
S11313200E9441109F938F93C9016AE070E00E946C
S113133041107F936F9327E13FE23F932F939F9256
S11313408F920E948B106AE080E00E942C0361E07F
S1131350C4010E9458041401812F0E941F07CDBFAD
S1131360DEBF77208CF48FE0E8E3FFE2D401019044
S11313700D928A95E1F76AE080E00E942C0361E017
S1131380C4010E9458046EC18FE0E2E2FFE2D4017E
S113139001900D928A95E1F764E180E00E942C03AC
S11313A061E0C4010E9458040E94A8014F88588C2F
S11313B08115904409F079CF55C1398D313009F048
S11313C084C0C6FE2FC380E00E94E70208E51BE14B
S11313D00F2EFAEAFF2EF02D0F2EF7E14F2EFFE22B
S11313E05F2EF02D013747E114071CF40F5F1F4FE8
S11313F050C0F98A6894EE24E1F88E010E5E1F4F06
S113140021E0AE014F5E5F4F6FE480E894E00E94FC
S11314100C0E182F682E880F77082A8930E0220FC7
S1131420331F8B89881F8827881F282BC901880FA1
S1131430991F880F991F280F391FC901332324F4DA
S113144088279927821B930B6AE070E00E94411061
S11314509F938F93C9016AE070E00E9441107F93CB
S11314606F935F924F929F928F920E948B106AE0CB
S113147080E00E942C0361E0C4010E94580414011E
S11314800E94F106812F0E941F07CDBFDEBF00E03E
S113149010E077209CF48FE0E8E3FFE2D4010190B0
S11314A00D928A95E1F76AE080E00E942C0361E0E6
S11314B0C4010E9458041A8E1B8EB4C20E94A80153
S11314C08115904409F08ECFADC2398D323009F0C8
S11314D0C9C0C6FEAAC280E00E94E70208E51BE17B
S11314E00F2EF3E84F2EFEE25F2EF02D0F2EF2EAC0
S11314F0FF2EF02D013747E114071CF40F5F1F4F37
S113150095C051EA598B6894EE24E1F88E010E5E81
S11315101F4F21E0AE014F5E5F4F6FE480E894E01F
S11315200E940C0E2A8930E0220F331F8B89881FFA
S11315308827881F282BC901880F991F880F991F96
S1131540280F391FC901332324F488279927821BC4
S1131550930B6AE070E00E9441109F938F93C9013E
S11315606AE070E00E9441107F936F935F924F9204
S11315709F928F920E948B106AE080E00E942C035D
S113158061E0C4010E945804F98A6894EE24E1F8E9
S11315908E010E5E1F4F21E0AE014F5E5F4F6FE480
S11315A080E894E00E940C0E182F682E880F7708AC
S11315B02A8930E0220F331F8B89881F8827881FD0
S11315C0282BC901880F991F880F991F280F391FCD
S11315D0C901332324F488279927821B930B6AE0DB
S11315E070E00E9441109F938F93C9016AE070E0FC
S11315F00E9441107F936F938FE89EE29F938F9395
S11316009F928F920E948B106AE086E40E942C03C2
S113161061E0C4010E94580414010E94F106812F64
S11316200E941F07CDBFDEBF00E010E077209CF4CE
S113163086E1E1E3FFE2D40101900D928A95E1F79E
S11316406AE080E00E942C0361E0C4010E94580417
S11316501A8E1B8EEAC10E94A8018115904409F0DC
S113166049CFE3C1898D833009F062C0C6FEE2C16F
S113167080E00E94E70208E51BE10F2EFCEAFF2E42
S1131680F02D013797E119071CF40F5F1F4F34C089
S1131690F98AEE24E3948E010E5E1F4F21E0AE0121
S11316A04F5E5F4F6FE480E894E00E940C0E182FA9
S11316B0682E880F77088A891F928F9327E43FE268
S11316C03F932F939F928F920E948B106AE080E049
S11316D00E942C0361E0C4010E94580414010E947A
S11316E0F106812F0E941F070F900F900F900F900B
S11316F00F900F9000E010E077209CF48FE0E8E377
S1131700FFE2D40101900D928A95E1F76AE080E04E
S11317100E942C0361E0C4010E9458041A8E1B8E9F
S113172089C10E94A8018115904409F0AACF82C101
S11317304F88588C898D843009F0C1C0C6FE81C1A0
S113174080E00E94E702DE8CEF8C0F2EF1EACF2EB0
S1131750F02DDF8AE8A2E9A0FAA00E94A8012C01DA
S11317608701009510950823192307FF0FC095E002
S1131770A90EB11C23EEA21624E0B2063CF00F2EF3
S1131780F2EEAF2EF02D6894BB24B2F8112354F47A
S1131790C5010597AF88B8A04E8D5F8D48175907CE
S11317A00CF45C010E94A80184FF0FC055E0A50E53
S11317B0B11C83EEA81684E0B8063CF00F2EF2EEBE
S11317C0AF2EF02D6894BB24B2F80E94A80194FFB8
S11317D00AC0C5010597AF88B8A02E8D3F8D281784
S11317E039070CF45C01BB200CF44AC0C5016AE063
S11317F070E00E944110D62E272FC501BB2024F48F
S1131800882799278A199B096AE070E00E94411091
S11318109F938F932F93DF924EE45FE25F934F93F6
S11318209F928F920E948B106AE080E00E942C03AA
S113183061E0C4010E94580414010E94F106CDBF66
S1131840DEBF06FF1DC0CC8ADD8AC5016AE070E0F8
S11318500E944110059714F080E801C080E08E8B4F
S113186023E0AE014C5E5F4F6FE480E894E00E9499
S1131870DD0D682E082E000C770814010E941F0746
S11318807720ACF4E9A2FAA28FE0E8E3FFE2D40106
S113189001900D928A95E1F76AE080E00E942C03A2
S11318A061E0C4010E9458041A8E1B8ECAC00E94B3
S11318B0A80172018115904409F04FCFC0C00A8D70
S11318C01B8D498D453009F0AAC0C6FEA8C080E032
S11318D00E94E702AF8AEE8CFF8C0A8F1B8F0B2DC0
S11318E00E94A8012C01CC8CDD8CC094D094C82219
S11318F0D922C7FE08C0C7010596EF88F02E8A15C5
S11319009B050CF47C01DD2034F455E0E51AF10864
S113191012F4E12CF12C0E94A80184FF08C0C70135
S11319200596EF88F02E8A159B050CF47C010E9425
S1131930A80194FF06C085E0E81AF10812F4E12C2E
S1131940F12CC7016AE070E00E944110162F272F86
S1131950C701FF2024F4882799278E199F096AE07C
S113196070E00E9441109F938F932F931F932CE557
S11319703FE23F932F939F928F920E948B106AE0D5
S113198080E00E942C0361E0C4010E945804140109
S11319900E94F106CDBFDEBFC6FE1EC092EA9C8B3C
S11319A01D8BC7016AE070E00E944110059714F096
S11319B080E801C080E08E8B23E0AE014C5E5F4F77
S11319C06FE480E894E00E94DD0D682E082E000C80
S11319D0770814010E941F077720ACF4EE8EFF8E67
S11319E08FE0E8E3FFE2D40101900D928A95E1F7DC
S11319F06AE080E00E942C0361E0C4010E94580464
S1131A0000E010E00CC00E94A8014C8E5D8E811590
S1131A10904409F065CFEE8EFF8E0A8D1B8D0E94D7
S1131A208B0D05CB4F88588C85CE0A8D1B8D4F8826
S1131A30588C47CF0A8D1B8D4F88588CF0CF49A204
S1131A405AA20A8D1B8DEBCFEF920F93FC0160938A
S1131A50B0004E29408B222311F0618301C06283C0
S1131A60002311F0658301C066830F91EF90089500
S1131A70877098ED94BF8093400008958C776370CD
S1131A80682B88ED84BF609341000895E0E5F0E0A1
S1131A909681997F892B86830895E0EFF0E0808119
S1131AA08260808388ED84BF81E08083808184604C
S1131AB080838FE193E00197F1F700C000008081FB
S1131AC088608083818183FFFDCF0895FC01658355
S1131AD076830895809371314093703110926F3101
S1131AE0E0E0FBE0108211821382148281E080879F
S1131AF010A211A266A377A366AB77AB8683178285
S1131B00E0EAF0E0828181608283089580917131FE
S1131B108093000B089580916E318823E1F38091C6
S1131B206E31815080936E3108951F920F920FB6DB
S1131B300F9211248F939F9380916F318F5F8093C5
S1131B406F3190917031891738F010926F31809114
S1131B506E318F5F80936E319F918F910F900FBE86
S1131B600F901F9018956093B000442321F028E350
S1131B70FC01208B03C028E2FC01208BFC01618363
S1131B8008950F931F93CF93DF93EC01D901C801FC
S1131B909A01AB01220F331F441F551FBC01CD0115
S1131BA00E945510DA01C9010597A109B1098D8375
S1131BB0DF91CF911F910F910895FC01862F90E042
S1131BC0880F991F8683948196FFFDCF92FD20C0D4
S1131BD093FD20C094FD03C0211106C014C083816D
S1131BE0836083838FEF0895A42FB52F30E09D91F8
S1131BF09783948196FFFDCF90713F5F231719F06F
S1131C009923A9F3232F838183608383822F0895EB
S1131C1084EF089585EF0895EF920F931F93CF9368
S1131C20DF93FC01222329F1862F90E0880F991F6E
S1131C308683848186FFFDCF82FD5CC083FD5CC00A
S1131C4084FF05C08381836083838FEF5AC0DA01E8
S1131C502150822F90E00196480F591F8D91878360
S1131C60848186FFFDCF8071A417B50711F0882306
S1131C70A9F3660F616066838481982F907CE1F3F9
S1131C8086FF0BC082FD3AC083FD3AC084FF05C0C5
S1131C908381836083838FEF34C0EA94A0E8B4E047
S1131CA012968C911297816012968C9312971396C8
S1131CB08C9113978B7F13968C9380E0C0E8D4E0CB
S1131CC08E1548F49781D801A80FB11D9C93948177
S1131CD09923ECF708C09B8194609B839781D8017A
S1131CE0A80FB11D9C938F5FE81650F79381936002
S1131CF0938307C084EF05C085EF03C084EF01C060
S1131D0085EFDF91CF911F910F91EF900895607C43
S1131D10FC016583862F0895FC016093B000108A4E
S1131D206183658308954F925F926F927F928F9241
S1131D309F92AF92BF92CF92DF92EF92FF920F9356
S1131D401F93CF936C0149015A01662329F0FC01CA
S1131D5084818460848304C0FC0184818B7F8483B8
S1131D60F601848182FF16C0D801C701689412F875
S1131D70B695A795979587951694D1F7B801A701BD
S1131D80032E36E176956795579547953A95D1F7A1
S1131D90302D15C0D801C701689413F8B695A795DE
S1131DA0979587951694D1F7B801A701032E37E1CB
S1131DB076956795579547953A95D1F7302D8815BF
S1131DC09905AA05BB0508F4ACC084169506A606B9
S1131DD0B70608F4A8C0F601848182FD04C0880C0B
S1131DE0991CAA1CBB1CC801B701A50194010E943F
S1131DF055102F3F31054105510508F496C08FEF6A
S1131E0090E0A0E0B0E0C9EF05C0281739074A0701
S1131E105B0758F0880F991FAA1FBB1FCD3F0CF416
S1131E208160CF5FC73089F755C0CC230CF052C016
S1131E30D501C401880F991FAA1FBB1F880F991FC2
S1131E40AA1FBB1F880F991FAA1FBB1F2701380198
S1131E50481A590A6A0A7B0ACE3F14F58DEF9FEFA0
S1131E608C1B9109C7FD9395B301A20104C0440FD3
S1131E70551F661F771F8A95D2F7D501C401B69501
S1131E80A795979587958A019B01080F191F2A1F0B
S1131E903B1FC901B801A50194010E94551037C028
S1131EA083E08C0FA501940104C0220F331F441F4B
S1131EB0551F8A95D2F7DA01C901B695A79597956A
S1131EC08795BC01CD01640D751D861D971D0E946B
S1131ED055101DC083E08C0FA501940104C0220F8E
S1131EE0331F441F551F8A95D2F7DA01C901B695ED
S1131EF0A79597958795BC01CD016E0D7F1D801F19
S1131F00911F0E9455102150310941095109832F15
S1131F108F70C295C07FC82BF601C783268380E0EB
S1131F201AC081E018C081E016C0D501C401880F31
S1131F30991FAA1FBB1F880F991FAA1FBB1F880FB9
S1131F40991FAA1FBB1F27013801481A590A6A0A98
S1131F507B0AC9EF83CFCF911F910F91FF90EF9030
S1131F60DF90CF90BF90AF909F908F907F906F90B5
S1131F705F904F900895CF92DF92EF92FF920F936C
S1131F801F93CF93DF93EC018C818B7F8C83D901DA
S1131F90C801B695A79597958795481759076A0775
S1131FA07B0778F46A017B01CC0CDD1CEE1CFF1C62
S1131FB0C901B801A70196010E94551021503109A9
S1131FC002C020E030E0832F8F708F832E8380E067
S1131FD0DF91CF911F910F91FF90EF90DF90CF9001
S1131FE00895EF92FF920F931F93FC01862FBA017D
S1131FF0A9019581907C9034B9F018F4992331F0BB
S113200019C0903851F0903C79F014C09A01AB019A
S1132010682FCF010E94930E0EC09A01AB0160E0BD
S1132020CF010E94930E07C098018701CF010E943F
S1132030BB0F01C081E01F910F91FF90EF900895B5
S1132040FC014250423010F480E401C080E060930F
S1132050B000808B618366830895FC016093B000B7
S1132060108A618365830895FC016D7F613011F4EA
S113207092E001C090E02581297F422B492B4583C2
S1132080089597FB072E16F4009407D077FD09D026
S11320900E94771007FC05D03EF4909581959F4FE0
S11320A00895709561957F4F0895A1E21A2EAA1B99
S11320B0BB1BFD010DC0AA1FBB1FEE1FFF1FA217F4
S11320C0B307E407F50720F0A21BB30BE40BF50BF1
S11320D0661F771F881F991F1A9469F7609570957A
S11320E0809590959B01AC01BD01CF010895AA1B79
S11320F0BB1B51E107C0AA1FBB1FA617B70710F0EF
S1132100A61BB70B881F991F5A95A9F78095909520
S1132110BC01CD0108950F931F93CF93DF93CDB7E7
S1132120DEB72E97CDBFDEBF0E891F8986E08C8374
S113213009831A838FEF9FE78D839E83AE01465EEA
S11321405F4F688D798DCE0101960E94B410EF81A6
S1132150F885E00FF11F10822E96CDBFDEBFDF9110
S1132160CF911F910F9108952F923F924F925F92BA
S11321706F927F928F929F92AF92BF92CF92DF9293
S1132180EF92FF920F931F93CF93DF93CDB7DEB7F8
S11321902B97CDBFDEBF6C017B018A01FC01168247
S11321A01782838181FFCCC1CE0101963C01F601E7
S11321B09381F70193FD859193FF81917F0188239A
S11321C009F4BAC1853239F493FD859193FF819165
S11321D07F01853229F4B60190E00E94CE12E7CF48
S11321E0912C212C312CFFE1F315D8F08B3279F0AE
S11321F038F4803279F08332A1F4232D20611DC09C
S11322008D3261F0803369F4232D216016C0832D53
S11322108260382EE32DE4603E2E2AC0F32DF86050
S11322201DC037FC2DC020ED280F2A3040F08E321F
S1132230B9F436FC81C1232D2064322E19C036FE38
S113224006C08AE0989E200D1124922E11C0EAE067
S11322502E9E200D1124222EF32DF0623F2E08C055
S11322608C3621F4832D8068382E02C0883641F4E0
S1132270F70193FD859193FF81917F018111B3CF84
S1132280982F9F7D9554933028F40C5F1F4F9FE344
S113229099830DC0833631F0833771F0833509F0AB
S11322A059C021C0F801808189830E5F1F4F8824A3
S11322B08394912C530113C02801F2E04F0E511C5A
S11322C0F801A080B18036FE03C0692D70E002C021
S11322D06FEF7FEFC5010E94C3124C018201F32D01
S11322E0FF773F2E16C0280122E0420E511CF80150
S11322F0A080B18036FE03C0692D70E002C06FEF8C
S11323007FEFC5010E94B8124C01F32DF0683F2EF7
S1132310820133FC1BC0822D90E088169906B0F42C
S1132320B60180E290E00E94CE122A94F4CFF50127
S113233037FC859137FE81915F01B60190E00E94E0
S1132340CE1221102A9421E0821A9108811491045A
S113235071F7E8C0843611F0893641F5F80137FE8B
S113236007C060817181828193810C5F1F4F08C017
S113237060817181072E000C880B990B0E5F1F4F33
S1132380F32DFF763F2E97FF09C0909580957095A9
S113239061957F4F8F4F9F4FF0683F2E2AE030E0CA
S11323A0A3010E940A13882E861845C0853731F48C
S11323B0232D2F7EB22E2AE030E025C0932D997F65
S11323C0B92E8F36C1F018F4883579F0B5C080374E
S11323D019F0883721F0B0C0E92FE061BE2EB4FEB9
S11323E00DC0FB2DF460BF2E09C034FE0AC0292F96
S11323F02660B22E06C028E030E005C020E130E0BF
S113240002C020E132E0F801B7FE07C060817181AB
S1132410828193810C5F1F4F06C06081718180E0CF
S113242090E00E5F1F4FA3010E940A13882E8618A6
S1132430FB2DFF773F2E36FE0DC0232D2E7FA22EBF
S1132440891458F434FE0BC032FC09C0832D8E7EEF
S1132450A82E05C0B82CA32C03C0B82C01C0B92CDD
S1132460A4FE0FC0FE01E80DF11D8081803321F42C
S11324709A2D997EA92E09C0A2FE06C0B394B394E6
S113248004C08A2D867809F0B394A3FC11C0A0FE81
S113249006C0B21488F4280C922C9B180EC0B214F7
S11324A060F4B60180E290E00E94CE12B394F7CFBC
S11324B0B21418F42B1802C0982C212CA4FE10C0BE
S11324C0B60180E390E00E94CE12A2FE17C0A1FCE8
S11324D003C088E790E002C088E590E0B6010CC034
S11324E08A2D867859F0A1FE02C08BE201C080E2F9
S11324F0A7FC8DE2B60190E00E94CE12891438F454
S1132500B60180E390E00E94CE129A94F7CF8A94A9
S1132510F301E80DF11D8081B60190E00E94CE1216
S11325208110F5CF222009F442CEB60180E290E07A
S11325300E94CE122A94F6CFF6018681978102C0BA
S11325408FEF9FEF2B96CDBFDEBFDF91CF911F9111
S11325500F91FF90EF90DF90CF90BF90AF909F903E
S11325608F907F906F905F904F903F902F90089541
S1132570FC010590615070400110D8F7809590954A
S11325808E0F9F1F0895FC0161507040019001104F
S1132590D8F7809590958E0F9F1F08950F931F93E2
S11325A0CF93DF93FB01238121FD03C08FEF9FEFC6
S11325B02CC022FF16C046815781248135814217E1
S11325C0530744F4A081B1819D012F5F3F4F2083C5
S11325D031838C93268137812F5F3F4F2683378346
S11325E014C08B01EC01FB010084F185E02D1995E9
S11325F0892BE1F6D80116968D919C911797019637
S113260016968D939C931797CE01DF91CF911F91CE
S11326100F910895FA01AA27283051F1203181F150
S1132620E8946F936E7F6E5F7F4F8F4F9F4FAF4FD6
S1132630B1E03ED0B4E03CD0670F781F891F9A1FE9
S1132640A11D680F791F8A1F911DA11D6A0F711D9D
S1132650811D911DA11D20D009F468943F912AE0A9
S1132660269F11243019305D3193DEF6CF01089591
S1132670462F4770405D4193B3E00FD0C9F7F6CFC2
S1132680462F4F70405D4A3318F0495D31FD40528A
S1132690419302D0A9F7EACFB4E0A6959795879520
S11326A077956795BA95C9F70097610571050895FF
S11326B09B01AC010A2E06945795479537952795AB
S11326C0BA95C9F7620F731F841F951FA01D089543
S10726D0F894FFCFA8
S11326D43F065B4F666D7D077F6F777C395E79714A
S11326E44000490A0F207E19200000000000000069
S11326F400000000000000000000000000000000D2
S113270400FC0DFC0D0000000000000000000000AF
S11327140000003C003C0000003C003C00000000C1
S113272400000000002002F80F20022002F80F200D
S11327340200000000000000000000200250025CBF
S11327440E90021001000000000000000030004858
S11327540C3802880168061809000600000000000D
S113276400B807440844084408B8070004000300F8
S113277400000000000000000000001C0000000035
S113278400000000000000000000000000F0030C42
S11327940C02100000000000000000000000000013
S11327A40002100C0CF00300000000000000000004
S11327B40000001000540038005400100000000011
S11327C40000000000000100010001E00F0001000E
S11327D401000100000000000000000000003000BF
S11327E41C000C00000000000000000000000100B8
S11327F401000100010001000100010000000000CB
S113280400000000000000000C000C0000000000A8
S113281400000000000000000C0003C000300008A9
S1132824000000000000000000F8070409840844C4
S1132834082408F80700000000000000000000104D
S1132844080808FC0F00080008000000000000004D
S1132854000808040C040BC408380800080000002D
S113286400000000000804040844084408B80700F1
S11328740000000000000000008003400230020851
S113288402FC0F0002000000000000000078044471
S113289408240824082408C40700000000000000D9
S11328A400F003880444084408840400030000007E
S11328B40000000000040004080406840164001CF1
S11328C4000000000000000000B807440844084465
S11328D4084408B8070000000000000000780884D9
S11328E408840884044402F8010000000000000085
S11328F40000000000C00CC00C0000000000000038
S113290400000000000030C01CC00C0000000000E7
S1132914000000000000000000000180028002406A
S113292404400420080000000000000000000040EF
S11329340240024002400240024002000000000043
S113294400000020084004400480028002000100CA
S1132954000000000008000400840D440038000056
S1132964000000000000000000C0072008D0175039
S113297414D0171014E003000000000000000C80C1
S11329840370010C0170018003000C0000000000BE
S113299400FC0F440844084408B807000000000081
S11329A40000000000F003080404080408040808F4
S11329B4040000000000000000FC0F0408040804E4
S11329C4080804F00300000000000000000000FCFC
S11329D40F440844084408040800000000000000F0
S11329E4000000FC0F840084008400040000000044
S11329F40000000000F00308040408840884088824
S1132A040F0000000000000000FC0F4000400040E4
S1132A14004000FC0F00000000000000000000045F
S1132A24080408FC0F040804080000000000000067
S1132A34000408040804080404FC03000000000063
S1132A440000000000FC0F80004000A00010030CF4
S1132A540C0000000000000000FC0F000800080047
S1132A6408000800080000000000000000FC0F300B
S1132A7400C000C0003000FC0F0000000000000093
S1132A8400FC0F1800600080010006FC0F00000029
S1132A940000000000F0030804040804080804F01B
S1132AA4030000000000000000FC0F040104010402
S1132AB401880070000000000000000000F003081A
S1132AC404041804280824F0230000000000000073
S1132AD400FC0F8400840084014802300C000000D0
S1132AE4000000000018042408440844088408086A
S1132AF4070000000000000000040004000400FCBF
S1132B040F040004000400000000000000FC07009F
S1132B1408000800080008FC07000000000000008A
S1132B24000C00F000000700080007F0000C00008F
S1132B340000000000FC01000EC003C003000EFCF2
S1132B44010000000000000000040818062001C071
S1132B540020011806040800000000000004001806
S1132B6400E000000FE00018000400000000000072
S1132B74000408040E0409C40834080C08000800FE
S1132B840000000000FE1F021002100000000000FC
S1132B9400000000000000000000000C003000C031
S1132BA4000003000C0000000000000000021002FA
S1132BB410FE1F00000000000000000000000000E0
S1132BC400000010000800040008001000000000C9
S1132BD400000000000000000800080008000800CD
S1132BE408000000000000000000000000040008C9
S1132BF40010000000000000000000000000062097
S1132C0409200920092005C00F0008000000000065
S1132C1400FE0F4008200820082004C00300000020
S1132C240000000000C00720082008200820082015
S1132C340800000000000000008003400420082075
S1132C440820082008FE0F000000000000C0072030
S1132C54092009200920092009C0090000000000F6
S1132C640020082008F80F24082408240800000081
S1132C740000000000C0072028204820482044E029
S1132C843F0000000000000000FE0F400020002070
S1132C94002000C00F00000000000000000000201D
S1132CA4082008E40F0008000800000000000000E9
S1132CB4000040204020402020E41F0000000000C9
S1132CC40000000000FE0F00018001400220040007
S1132CD4080000000000000000040804080408FCC4
S1132CE40F000800080008000000000000E00F4086
S1132CF4002000C00F2000E00F00000000000000CE
S1132D0400E00F4000200020002000C00F0000005D
S1132D140000000000C0072008200820082008C084
S1132D24070000000000000000E07F4008200820A5
S1132D34082008C0070000000000000000C00720AD
S1132D4408200820082008E07F000000000000009C
S1132D540020082008C00F400820082000000000BC
S1132D640000000000C008200920092009200920CF
S1132D7406000000000000000020002000F00720EE
S1132D8408200820080000000000000000E00700FC
S1132D940800080008E00700080000000000000024
S1132DA4002000C0000003000C0003C00020000049
S1132DB40000000000E001000E80018001000EE02C
S1132DC40100000000000000000000200CC002000C
S1132DD401C002200C00000000000000002000C01C
S1132DE400006700180007C0002000000000000075
S1132DF4002008200C200A2009A008600800000014
S1132E040000000000000000000000CC0C3213009D
S1132E140000000000000000000000000000003E6C
S1132E241F0000000000000000000000000000007B
S1132E34003213CC0C00000000000000000000006D
S1132E44000800040004000800100010000800003A
S1132E540000000000060A207E8B2700000000000A
S1132E640000000000000000000000BE000000009C
S1132E7400000000000E0000000E0000000000141A
S1132E84003E0014003E00140000004C009200FFB9
S1132E940192006400000086006A005400AC00C281
S1132EA40000006C009200AA004600A0000000008C
S1132EB40000000E0000000000000000000000FEFE
S1132EC40001010000000000000101FE00000000F8
S1132ED400000014001C003E001C0014000000103C
S1132EE40010007C0010001000000000000002C06C
S1132EF40100000000000000001000100010000099
S1132F0400000000000000C00000000000000000F9
S1132F1401C00160001800060001007C00A20092B8
S1132F24008A007C00000004008400FE008000008D
S1132F340000008400C200A20092008C000000443F
S1132F44008200920092006C0000003000280024EB
S1132F5400FE00200000004E008A008A008A0072ED
S1132F640000007C009200920092006000000002C5
S1132F74000200E20012000E0000006C00920092B5
S1132F840092006C0000000C009200920092007CFD
S1132F9400000000000000D8000000000000000051
S1132FA4000002D00100000000000000001000280E
S1132FB4004400820000002800280028002800287B
S1132FC400000000008200440028001000000004F7
S1132FD4000200E20012000C0000007C008200BA2F
S1132FE400AA00BC000000FC00220022002200FC15
S1132FF4000000FE009200920092006C0000007C2D
S11330040082008200820044000000FE00820082EC
S11330140082007C000000FE009200920092008274
S1133024000000FE00120012001200020000007CE6
S11330340082008200920074000000FE0010001060
S1133044001000FE00000082008200FE0082008264
S113305400000060008000800080007E000000FE0C
S11330640038006C00C60082000000FE008000806E
S113307400800080000000FE000C0018000C00FE1C
S1133084000000FE000C0010006000FE0000007C44
S1133094008200820082007C000000FE0012001204
S11330A40012000C0000007C008200C20082007C3C
S11330B4010000FE00120012001200EC0000004C9B
S11330C4009200920092006400000002000200FEDC
S11330D4000200020000007E008000800080007E68
S11330E400000006003800C0003800060000007E1E
S11330F4008000700080007E00000082006C0038B4
S1133104006C008200000002000C00F8000C0002B5
S1133114000000C200A20092008A008600000000A1
S1133124000000FF01010100000000010007000C81
S1133134003000C000000100000101FF0100000094
S1133144000000080004000200040008000000005D
S11331540200020002000200020002000001000258
S113316400000000000000E800A800A800A800F087
S1133174000000FE008800880088007000000070D1
S113318400880088008800500000007000880088CF
S1133194008800FE0000007000A800A800A800B089
S11331A400000000008800FE008A00020000007095
S11331B400880288028802F8010000FE0008000862
S11331C4000800F000000000008800FA00800000FD
S11331D400000008020802FA01000000000000FEDA
S11331E4002000300048008800000082008200FEB5
S11331F400800080000000F8000800F8000800F8CF
S1133204000000F800080008000800F00000007046
S11332140088008800880070000000F80388008893
S1133224008800700000007000880088008800F89E
S1133234030000F80008000800080018000000B8A3
S113324400A800A800A800E8000000000008007E10
S1133254008800880000007800800080008000F866
S1133264000000080070008000700008000000786E
S113327400800078008000780000008800D80020D6
S113328400D800880000007800800280028002F8E0
S11332940100008800C800A800980088000000000D
S11332A4001000EE0001010000000000000000FF17
S11332B40100000000000000000101EE0010000005
S11332C400000004000200040008000400000006DA
S11332D407207E052C00000000000000005F0000B1
S11332E400000700070000147F147F1400242A7FC1
S11332F42A12002313086462003649552250000040
S11333040503000000001C224100000041221C00AF
S113331400082A1C2A080008083E08080000503047
S1133324000000080808080800006060000000208D
S113333410080402003E5149453E0000427F40000B
S1133344004261514946002141454B310018141291
S11333547F10002745454539003C4A49493000015E
S11333647109050300364949493600064949291EAD
S11333740000363600000000563600000000081431
S113338422410014141414140041221408000002ED
S11333940151090600324979413E007E1111117E22
S11333A4007F49494936003E41414122007F414161
S11333B4221C007F49494941007F09090101003E5B
S11333C441415132007F0808087F0000417F4100D9
S11333D4002040413F01007F08142241007F404007
S11333E44040007F0204027F007F0408107F003EF7
S11333F44141413E007F09090906003E4151215ED5
S1133404007F091929460046494949310001017FD1
S11334140101003F4040403F001F2040201F007F27
S11334242018207F00631408146300030478040341
S11334340061514945430000007F414100020408F2
S113344410200041417F00000004020102040040F6
S113345440404040000001020400002054545478C9
S1133464007F4844443800384444442000384444E9
S1133474487F00385454541800087E090102000897
S11334841454543C007F080404780000447D400034
S1133494002040443D0000007F1028440000417F88
S11334A44000007C04180478007C08040478003884
S11334B444444438007C1414140800081414187C7C
S11334C4007C0804040800485454542000043F4475
S11334D44020003C4040207C001C2040201C003C38
S11334E44030403C004428102844000C5050503CC8
S11334F4004464544C440000083641000000007F3A
S11335040000000041360800000201020402002009
S11335144F4E20004E4F534C41564520202020202E
S11335242020202020202020004152424C4F53547C
S1133534202020202020202020202020200042554C
S113354453455252202020202020202020202020B7
S11335542020005448203D2533642E253164005432
S11335644C203D2533642E25316400506F6D696110
S113357472207265637A6E79202020202020200036
S1133584506F6D696172206175746F6D61747963D4
S11335947A6E7920004F64637A79742054482069E0
S11335A420544C202020202020004F64637A797416
S11335B4204346472020202020202020202000557E
S11335C47374617720544820202020202020202058
S11335D42000557374617720544C2020202020202F
S11335E42020202020200054203D2533642E253122
S11335F464004F64637A79742D6F6B2028533729E0
S113360400202020202020202020202020202020D2
S11336142020202020200063666725337800546826
S11336247A203D202533642E25316400546C7A209D
S10D36343D2533642E2531640000A7
S9030000FC
