S00F00004C456E456C30312E7372656304
S11300000C94FE000C941F010C941F010C941F010E
S11300100C941F010C941F010C941F010C941F01DC
S11300200C941F010C941F010C941F010C941F01CC
S11300300C941F010C941F010C9442070C941F0193
S11300400C9459070C9491070C94C9070C9401085B
S11300500C941F010C941F010C941F010C941F019C
S11300600C941F010C941F010C941F010C941F018C
S11300700C941F010C941F010C941F010C941F017C
S11300800C941F010C941F010C941F010C941F016C
S11300900C941F010C941F010C941F010C941F015C
S11300A00C941F010C941F010C941F010C94330732
S11300B00C941F010C941F010C941F010C941F013C
S11300C00C941F010C941F010C941F010C941F012C
S11300D00C941F010C941F010C941F010C941F011C
S11300E00C941F010C941F010C941F010C941F010C
S11300F00C941F010C941F010C941F010C941F01FC
S11301000C941F010C941F010C941F010C941F01EB
S11301100C941F010C941F010C941F010C941F01DB
S11301200C941F010C941F010C941F010C941F01CB
S11301300C941F010C9439080C941F010C94500862
S11301400C9488080C941F010C941F010C941F013B
S11301500C941F010C941F010C941F010C941F019B
S11301600C941F010C941F010C941F010C941F018B
S11301700C941F010C941F010C941F010C941F017B
S11301800C941F010C941F010C941F010C941F016B
S11301900C941F010C941F010C941F010C941F015B
S11301A00C941F010C941F010C941F010C941F014B
S11301B00C94480E0C941F010C941F010C941F0105
S11301C00C941F010C941F010C941F010C941F012B
S11301D00C941F010C941F010C941F010C941F011B
S11301E00C941F010C941F010C941F010C941F010B
S11301F00C941F010C941F010C941F0111241FBEA9
S1130200CFEFCDBFDFE5DEBF00E00CBF1EE2A0E014
S1130210B0E2E2E6FAE200E00BBF02C007900D9202
S1130220A43DB107D9F721E3A4EDBEE201C01D92BC
S1130230A233B207E1F70E94C0080C942F150C9466
S11302400000CF93DF931F92CDB7DEB78DE0898393
S113025061E0CE0101960E944D020F90DF91CF9193
S11302600895CF93DF931F921F92CDB7DEB798E026
S113027099838A8362E0CE0101960E944D020F9019
S11302800F90DF91CF910895CF93DF931F921F9228
S1130290CDB7DEB790E199834150463010F4942FE6
S11302A001C095E020E2629FA0011124482B492B54
S11302B04A8362E0CE0101960E944D020F900F9096
S11302C0DF91CF910895CF93DF931F921F92CDB703
S11302D0DEB789836A8362E0CE0101960E944D02F3
S11302E00F900F90DF91CF9108950F931F93CF93A9
S11302F0C82FDB018C918823D1F1C630C0F5E0ED25
S1130300E80FEA30B8F09FEB980F963018F4E9EC58
S1130310E80F10C09FE9980F963018F4E9EAE80F47
S113032009C08D3221F0803221F0E2E103C0E0E126
S113033001C0E1E10E2E000CFF0BE050F04E608195
S113034011968C9111978E3229F460688D010F5F9C
S11303501F4F01C08D018C2F0E946301C150D80131
S11303601196F8018181882311F0C63040F2CF91B3
S11303701F910F910895CF93DF931F921F92CDB7D2
S1130380DEB742E0BE016F5F7F4F89E40E948502C1
S113039089819A810F900F90DF91CF910895CF9327
S11303A0DF93CDB7DEB72597CDBFDEBF98E1998344
S11303B0877090E1899F90011124282B2A832B8335
S11303C02C832D8365E0CE0101960E944D02259673
S11303D0CDBFDEBFDF91CF910895CF93DF9300D0DF
S11303E01F92CDB7DEB791E19983877090E1899F21
S11303F090011124282B2A832B832C8364E0CE01C3
S113040001960E944D022496CDBFDEBFDF91CF91AD
S11304100895A0EBB0E021E02C93E0E8F6E088E159
S1130420808B218392E09C93108A918384E08C9347
S1130430108A81832583958385830895823048F5C6
S1130440E0E8F6E098E092839093B0009AE1908B14
S1130450882319F0813079F01EC0E0E8F6E081E0ED
S11304608187828588608287E0EAF0E0828181600A
S1130470828380E00895E0E8F6E084E08187838564
S113048088608387E0EAF0E082818160828381E092
S113049008958FEF08958FEF0895E0E8F6E021E0E6
S11304A0218324E0268325E02A95F1F700006623C2
S11304B021F1DC01615070E06F5F7F4F680F791F9D
S11304C042E051E017C046839C91932311F0558379
S11304D001C0568382E08A95F1F700C0458382E02B
S11304E08A95F1F700C0330F215069F711966A1706
S11304F07B0719F028E031E0E6CF25E02A95F1F7F3
S1130500000084E0809385060895CF93DF93DB0198
S1130510E0E8F6E091E0918394E0968335E03A9543
S1130520F1F7000028E091E032E071E03683582FC3
S1130530592311F0758301C0768352E05A95F1F77F
S113054000C0358352E05A95F1F700C0990F21504D
S113055069F785E08A95F1F7000081E080938206CF
S1130560442331F1ED014150842F90E00196BD0107
S1130570680F791FE0E8F6E022E0DE01188288E0E7
S113058091E0268332E03A95F1F700C0258352E0EA
S11305905A95F1F700C0308530FF03C03C91392BE8
S11305A03C93990F815069F72196C617D70729F70D
S11305B084E080938506DF91CF910895EF92FF92B6
S11305C00F931F93E12C01E021E040E068E080E01C
S11305D096E00E94D70D00E021E040E061E080E673
S11305E096E00E94D70D68E080EA96E00E945A10D7
S11305F043E062E080E696E00E944D1068E080E609
S113060096E00E946B0E60EC80EA99E00E94660E10
S113061040E063E080EA99E00E946110E12C14E27A
S1130620F12E04EF10E020E432E44FE050E060E00B
S113063080EA99E00E941010E0EAF9E08481886081
S113064084838481806184831F910F91FF90EF9054
S1130650089591E0813009F090E0892F8195E8EDCB
S1130660FEE228ED30E38193E217F307E1F72FE789
S113067040E063E080E00E943A0608951092D72E8D
S11306801092D62E8FEF9BE28093D42E9093D52E8A
S113069008950E9414050E943E030895813061F07C
S11306A018F0823089F018C08FEF9BE28093D42E2B
S11306B09093D52E80E0089585E897E28093D42E18
S11306C09093D52E81E0089583E190E28093D42E17
S11306D09093D52E82E008958FEF0895882314F027
S11306E08093D72E603210F46093D62E08952F9203
S11306F03F924F925F927F928F929F92AF92BF925E
S1130700CF92DF92EF92FF920F931F93CF93DF93D9
S113071000D01F92CDB7DEB7E091D42EF091D52E44
S11307202281821708F4EAC09381981708F4E8C07C
S113073041813091D62EE42EE30E9FEF9E0D903230
S113074008F0E0C05081F090D72EC52ECF0CCA948B
S1130750CC200CF4D9C0D62E732E7694769476944D
S1130760E92EE694E694E694642F6695669566957C
S113077070E06F5F7F4F90E0821B9109689FF001EA
S1130780699FF00D789FF00D11245E9F40015F9FDB
S1130790900C11248B829C8280E290E0841B91094E
S11307A04FEF5FEFBA014A015B0104C0B694A7940E
S11307B0979487948A95D2F7D501C4013770A32EF4
S11307C0B12CA982BA821C012D0104C0220C331C55
S11307D0441C551C3A95D2F7CF1408F47CC052013E
S11307E0410180949094A094B0944F2D6E2D872D48
S11307F00E94E2068B019C01E091D42EF091D52E4B
S113080064817581AB81BC81A60FB71F8C9190E088
S1130810A0E0B0E04B815C814F5F5F4FE181E93044
S1130820A0F0FB01E40FF51F408150E0542F442752
S113083060E070E0842B952BA62BB72B4B815C8159
S11308404E5F5F4F4B835C8302C04B835C830980A4
S113085004C0880F991FAA1FBB1F0A94D2F751E046
S1130860D516B9F0D51620F042E0D416F9F02AC016
S1130870B201A101402B512B622B732B80959095D3
S1130880A095B0958C019D010423152326233723BD
S113089019C0B501A40140235123622373238C01A1
S11308A09D01042B152B262B372B0CC0B201A10163
S11308B040275127622773278C019D0104271527A0
S11308C0262737274F2D6E2D872D0E941907F39465
S11308D0CF1408F08ACF2C2D4091D72E6E2D872D62
S11308E00E943A06E091D42EF091D52E9091D72E05
S11308F08081890F8093D72E80E007C081E005C0F6
S113090081E003C082E001C083E02496CDBFDEBF56
S1130910DF91CF911F910F91FF90EF90DF90CF90D7
S1130920BF90AF909F908F907F905F904F903F903B
S11309302F9008951F93CF93DF93EC01162F888196
S1130940882371F18D3021F41092D72EFE0123C03B
S11309508A3061F4E091D42EF091D52E9091D62E68
S11309608181890F8093D62EFE0115C0612F0E94CC
S11309707703833079F41092D72EE091D42EF0913E
S1130980D52E9091D62E8181890F8093D62EFE018B
S1130990319701C0FE01EF01219681818111D2CFEF
S11309A0DF91CF911F9108958E3108F48EE1893241
S11309B008F088E298E09093A60691E0909366068A
S11309C0E0EAF9E0918195FFFDCF91E89093A009C9
S11309D0E0EAF9E0918196FFFDCFE0EAF9E0918148
S11309E0906491839081E0EAF6E098E09583282F63
S11309F020952F73968391E090936606E0EAF9E0E0
S1130A00918195FFFDCF2093A009E0EAF9E091815F
S1130A1096FFFDCFE0EAF9E09181906491839081A3
S1130A2098E09093A50608951F93CF93DF93E0E099
S1130A30F6E088E0868395E39A95F1F700008583D4
S1130A4095E39A95F1F70000E0E6F6E091E09683ED
S1130A508093A6069683E0EAF9E0818185FFFDCFC5
S1130A6080EA8093A009E0EAF9E0818186FFFDCF66
S1130A70E0EAF9E08181806481838081E0EAF6E044
S1130A8088E08583868381E080936606E0EAF9E066
S1130A90818185FFFDCF86EA8093A009E0EAF9E031
S1130AA0818186FFFDCFE0EAF9E081818064818362
S1130AB08081E0EAF6E088E08583868381E08093A4
S1130AC06606E0EAF9E0818185FFFDCF88EC80933A
S1130AD0A009E0EAF9E0818186FFFDCFE0EAF9E0D0
S1130AE08181806481838081E0EAF6E088E0858307
S1130AF0868381E080936606E0EAF9E0818185FFE0
S1130B00FDCF82EA8093A009E0EAF9E0818186FFC3
S1130B10FDCFE0EAF9E08181806481838081E0EAAD
S1130B20F6E088E08583868381E080936606E0EAC8
S1130B30F9E0818185FFFDCF8FE28093A009E0EA8F
S1130B40F9E0818186FFFDCFE0EAF9E081818064EC
S1130B5081838081E0EAF6E088E08583868381E012
S1130B6080936606E0EAF9E0818185FFFDCF88EF96
S1130B708093A009E0EAF9E0818186FFFDCFE0EAF5
S1130B80F9E08181806481838081E0EAF6E088E095
S1130B908583868381E080936606E0EAF9E08181BB
S1130BA085FFFDCF1092A009E0EAF9E0818186FF7C
S1130BB0FDCFE0EAF9E08181806481838081E0EA0D
S1130BC0F6E088E08583868381E080936606E0EA28
S1130BD0F9E0818185FFFDCF81E28093A009E0EAFD
S1130BE0F9E0818186FFFDCFE0EAF9E0818180644C
S1130BF081838081C0EAD6E018E01D838EE10E94E3
S1130C00D4041E8381E080936606E0EAF9E08181E2
S1130C1085FFFDCF8FEA8093A009E0EAF9E08181A6
S1130C2086FFFDCFE0EAF9E08181806481838081E1
S1130C30E0EAF6E088E08583868381E080936606B7
S1130C40E0EAF9E0818185FFFDCF80E48093A0098B
S1130C50E0EAF9E0818186FFFDCFE0EAF9E08181F5
S1130C6080648183808188E08093A506DF91CF91A1
S1130C701F9108956F927F928F929F92AF92BF922D
S1130C80CF92DF92EF92FF920F931F93CF93DF9354
S1130C90B82EA62E681708F486C0842F8F77829505
S1130CA08F708061882EA0EAB6E088E00F2EF0E60F
S1130CB06F2EF6E07F2EF02DDD24D394E0EAF9E0E8
S1130CC0942F9F70992E042F10E0E22EF12C2B2DDF
S1130CD02F70206B16968C931697E301DE82918118
S1130CE095FFFDCF2083918196FFFDCF9181906484
S1130CF09183908115968C93159716968C931697DD
S1130D00E301DE82918195FFFDCF8082918196FF80
S1130D10FDCF918190649183908115968C93159762
S1130D2016968C931697E301DE82918195FFFDCF91
S1130D309082918196FFFDCF9181906491839081FF
S1130D4015968C9315979801D0E8BD9E200D311D02
S1130D501124B701620F731F6217730700F1A90111
S1130D604852514DEA01C990AE0116968C931697DC
S1130D70E301DD82918195FFFDCFC082918196FFD1
S1130D80FDCF9181906491839081E301DE82159679
S1130D908C9315972F5F3F4F6217730718F7B3941F
S1130DA0AB1408F094CFDF91CF911F910F91FF9076
S1130DB0EF90DF90CF90BF90AF909F908F907F90F7
S1130DC06F900895CF92DF92EF92FF92962FE42FC7
S1130DD0F0E020E8829FE00DF11D11246817F8F07F
S1130DE0E852F14D20E030E0C12CD12C7601408155
S1130DF050E060E070E0022E04C0440F551F661FEF
S1130E00771F0A94D2F7C42AD52AE62AF72A8F5FD5
S1130E10E058FF4F285F3F4F981748F703C0C12C95
S1130E20D12C7601C701B601FF90EF90DF90CF90EF
S1130E3008950F931F93E42FF0E090E8899FE00D4D
S1130E40F11D1124681760F0E852F14D0083012F61
S1130E50122F232F33278F5FE058FF4F6817B0F707
S1130E601F910F9108951F920F920FB60F921124A4
S1130E708F9381E08093FC308F910F900FBE0F9081
S1130E801F9018951F920F920FB60F9211248F93F3
S1130E909F938091DA309091DB3001968093DA3021
S1130EA09093DB309F918F910F900FBE0F901F9006
S1130EB018951F920F920FB60F9211240BB60F9232
S1130EC08F939F93AF93BF93EF93FF938091DA3007
S1130ED09091DB30EDEFF0E38683978380912808CF
S1130EE0909129088483958380819181A281B38123
S1130EF00196A11DB11D80839183A283B383809148
S1130F002D31816080932D31FF91EF91BF91AF918D
S1130F109F918F910F900BBE0F900FBE0F901F905B
S1130F2018951F920F920FB60F9211240BB60F92C1
S1130F308F939F93AF93BF93EF93FF938091DA3096
S1130F409091DB30EDEFF0E38687978780912A0854
S1130F5090912B088487958780859185A285B38598
S1130F600196A11DB11D80879187A287B3878091C7
S1130F702D31826080932D31FF91EF91BF91AF911C
S1130F809F918F910F900BBE0F900FBE0F901F90EB
S1130F9018951F920F920FB60F9211240BB60F9251
S1130FA08F939F93AF93BF93EF93FF938091DA3026
S1130FB09091DB30EDEFF0E3868B978B80912C08DA
S1130FC090912D08848B958B80899189A289B3890E
S1130FD00196A11DB11D808B918BA28BB38B809147
S1130FE02D31846080932D31FF91EF91BF91AF91AA
S1130FF09F918F910F900BBE0F900FBE0F901F907B
S113100018951F920F920FB60F9211240BB60F92E0
S11310108F939F93AF93BF93EF93FF938091DA30B5
S11310209091DB30EDEFF0E3868F978F80912E085F
S113103090912F08848F958F808D918DA28DB38D83
S11310400196A11DB11D808F918FA28FB38F8091C6
S11310502D31886080932D31FF91EF91BF91AF9135
S11310609F918F910F900BBE0F900FBE0F901F900A
S113107018951F920F920FB60F9211248F939F937E
S11310808091D8309091D93001968093D830909344
S1131090D9309F918F910F900FBE0F901F9018958C
S11310A01F920F920FB60F9211240BB60F928F93CB
S11310B09F93AF93BF93EF93FF938091D830909118
S11310C0D930EDEFF0E386A397A38091280990919E
S11310D0290984A395A380A191A1A2A1B3A10196FA
S11310E0A11DB11D80A391A3A2A3B3A380912D310F
S11310F0806180932D31FF91EF91BF91AF919F91CA
S11311008F910F900BBE0F900FBE0F901F901895EC
S11311101F920F920FB60F9211240BB60F928F935A
S11311209F93AF93BF93EF93FF938091D8309091A7
S1131130D930EDEFF0E386A797A780912A09909123
S11311402B0984A795A780A591A5A2A5B3A501966F
S1131150A11DB11D80A791A7A2A7B3A780912D318E
S1131160806280932D31FF91EF91BF91AF919F9158
S11311708F910F900BBE0F900FBE0F901F9018957C
S1131180CF93DF93CDB7DEB7C356D109CDBFDEBF52
S11311907894E0E5F0E0808182608083818181FF42
S11311A0FDCF60E084E00E94F10D81E00E94EB0D30
S11311B00E94000EE0E5F0E082E082838081886096
S11311C08083818183FFFDCF62E17AE780E690E04E
S11311D00E94190E82E00E94F90D81E08093600064
S11311E0E0E5F0E080818E7F80830E94090280E048
S11311F00E941E020E94210146E060E080E00E94FD
S1131200440184E00E94ED0182E00E94CF0167E581
S11312107EE285E00E947501E12C00E021E040E0DF
S113122060E180E896E00E94D70D80E18093850616
S11312300E94DE020E94490380E00E9429038EE19D
S11312400E94D40481E00E944E0360E080E00E948A
S11312506E0345E060E47CE984E00E941D0E0E9478
S1131260390EE0E4F9E011828FE99FE086AB97AB99
S113127086A397A388ED8093800120E041E06FE08E
S113128080E296E00E94D70D20E041E060E380E038
S113129096E00E94D70D88E58093810189E58093CB
S11312A082018AE5809383018BE58093840184E540
S11312B08093850185E580938601E0E0F8E0118262
S11312C086818C7F826086838AEA878389E283832E
S11312D098E09083E0E0F9E0118286818C7F82605F
S11312E086838AE087838DE283839083E0EAF0E05B
S11312F082818260828368E080E496E00E946B0EC3
S113130060E080EA98E00E94660E25E441E068E02F
S113131080EA98E00E94720EE12C14E2F12E04EFB0
S113132010E020E03BE440E050E060E080EA98E038
S11313300E941010E0EAF8E08481886084831092AF
S1131340FC3080E00E9431010F2EFFE3EF2EFEE21D
S1131350FF2EF02D00E010E0D7012D913D914D912D
S11313605C9164EA73E986E59FE40E946E10F701DC
S113137061937193819391937F01C801880F991FA1
S1131380880F991F880F991FA1E0B0E0AC0FBD1F13
S1131390A80FB91FFC01E350FF4C88E001900D92A7
S11313A08A95E1F70F5F1F4F06301105A9F60F2E3E
S11313B0F2E3EF2EF12CF02D712C612C6A961FAE06
S11313C06A9765961FAE6597D12C67961FAE67978F
S11313D09E012F5C3F4F63962EAF3FAF639762969B
S11313E03FAD629768963FAF689763964FAD63973A
S11313F069964FAF69978091FC30882309F4C7C37D
S11314000E94BB018C011092FC308F739927892BA9
S113141021F1802F8F7367969FAD67979827679602
S11314209FAF67979923CCF4A0E19A9FC001112440
S1131430E0E0F8E02181922F982391839181892B18
S11314408183E0E0F9E0918167968FAD67978073BF
S1131450982391839181892B818307FF37C06796F5
S1131460BFAD6797B0586796BFAF6797BB23CCF4FF
S1131470E0E0F8E0218130E1B39FC0011124822B28
S11314808183E0E0F9E081819B2F9073892B818334
S113149083E08093400967968FAD67970E9431017E
S11314A054C010924009E0E0F8E081818F7081839C
S11314B0E0E0F9E081818F7C818367968FAD679747
S11314C00E94310111230CF040C00CC067968FAD0F
S11314D067970E9431011123C4F567964FAD679752
S11314E044239CF1109220081092210810922009A4
S11314F0109221091092DA301092DB301092D83019
S11315001092D93080E090E0DC01AA0FBB1FAA0F33
S1131510BB1FAA0FBB1FFD01E350FF4C10821182B9
S113152012821382148215821682178221E030E01F
S11315302C0F3D1FA20FB31F28E001900D922A9596
S1131540E1F7019686309105F9F610FF06C080E0B8
S11315500E94290365961FAE659711FF07C080E0BE
S11315600E94290331E065963FAF659712FF06C0DC
S113157080E00E94290313FD0AC01DC013FF07C3A6
S113158065964FAD6597442309F401C304C082E016
S113159065968FAF65976A969FAD6A979D5F6A96C9
S11315A09FAF6A97943018F06A961FAE6A9780E0EE
S11315B00E942903ECC2AFEFEA1AFA0AB2E3EB166F
S11315C0F1040CF4EDC2E2E06596EFAF65976A961C
S11315D0DFAC6A97DD0CD1948D2D880F880F9E01A6
S11315E02F5F3F4F19010F2EFFE3AF2EFEE2BF2EF8
S11315F0F02DD80E6496DFAE649788248394912CE2
S1131600E12CF12C01E067963FAD6797432E512CF6
S11316106A964FAD6A97C42ED12CC60103966C9678
S11316208EAF9FAF6C976696EFAE6697002E000C58
S1131630110BC20180239123892B09F470C180917D
S11316402D3190E080239123892B09F4FCC1659608
S11316509FAD6597913009F4D7C020F0923009F41A
S113166008C13BC1F701EE0FFF1FEE0FFF1FEE0F86
S1131670FF1FE350FF4C80819181A281B381A49626
S11316808CAF9DAFAEAFBFAFA49784819581A68187
S1131690B781A0968CAF9DAFAEAFBFAFA097D1017D
S11316A014964D915D916D917C911797A0968CAD98
S11316B09DADAEADBFADA097841B950BA60BB70B2C
S11316C0A0968CAF9DAFAEAFBFAFA097892B8A2BEE
S11316D08B2B09F467C0D1012D913D914D915C9103
S11316E0A4966CAD7DAD8EAD9FADA497621B730BBC
S11316F0840B950B0E941611F501208131814281E2
S113170053810E94A411A4966CAF7DAF8EAF9FAF9E
S1131710A497A0966CAD7DAD8EAD9FADA0970E94B1
S113172016119B01AC01A4966CAD7DAD8EAD9FAD41
S1131730A4970E946E10A0966CAF7DAF8EAF9FAF42
S1131740A09720E030E040E251E40E94A4110E94FE
S1131750E0102AE030E040E050E00E9433129F9312
S11317608F937F936F93A0966CAD7DAD8EAD9FAD3F
S1131770A0970E94E0109F938F937F936F939F9203
S11317808F922EE53EE23F932F9363968FAD63973E
S11317908F9362969FAD62979F930E945212CDBF22
S11317A0DEBF16C09F928F92EDE6FEE2FF93EF93A9
S11317B063963FAD63973F9362964FAD62974F93A5
S11317C00E9452120F900F900F900F900F900F9055
S11317D066968FAD669781781CF481508E6F8F5F0B
S11317E0682E660C660C660C660C660C660C6696B7
S11317F08FAD669788230CF48F5F8E7F982F990F97
S1131800990F782E790E69C0C701EC14FD045CF1C0
S11318106C96AEADBFAD6C97EA16FB0624F5880F47
S1131820991F880F991F880F991FFC01E350FF4CE3
S113183084819581A681B781BF93AF939F938F9342
S11318409F928F92E9E7FEE2FF93EF9363963FAD99
S113185063973F9362964FAD62974F930E945212E3
S1131860CDBFDEBF01C019AA64967FAC6497612C1A
S113187034C0C701EC14FD045CF16C96AEADBFAD91
S11318806C97EA16FB0624F5880F991F880F991F99
S1131890880F991FFC01E350FF4C80819181A28144
S11318A0B381BF93AF939F938F939F928F92E5E8F9
S11318B0FEE2FF93EF9363963FAD63973F93629687
S11318C04FAD62974F930E945212CDBFDEBF01C04D
S11318D019AA64967FAC6497612C672D862D0E94AB
S11318E06E0361E068968FAD689769969FAD6997BE
S11318F00E949A04F701EE0FFF1FEE0FFF1FEE0F79
S1131900FF1FA1E0B0E0AC0FBD1FAE0FBF1FE3503F
S1131910FF4C88E001900D928A95E1F794C065969A
S11319209FAD65979130B9F120F0923009F45AC017
S11319307DC09F928F92A2E9BEE2BF93AF9363965C
S1131940FFAD6397FF9362962FAD62972F930E942A
S1131950521266968FAD669781780F900F900F9014
S11319600F900F900F901CF481508E6F8F5F682E34
S1131970660C660C660C660C660C660C66968FAD7F
S1131980669788230CF48F5F8E7F982F990F990F99
S1131990782E790E4BC0EC14FD040CF447C06C9601
S11319A0AEADBFAD6C97EA16FB060CF03FC09F923C
S11319B08F92EEE9FEE2FF93EF9363963FAD639758
S11319C03F9362964FAD62974F930E9452120F90CD
S11319D00F900F900F900F900F9064967FAC6497C8
S11319E0612C24C0EC14FD040CF16C96AEADBFADBB
S11319F06C97EA16FB06D4F49F928F92EFEAFEE20C
S1131A00FF93EF9363963FAD63973F9362964FAD19
S1131A1062974F930E9452120F900F900F900F9065
S1131A200F900F9064967FAC6497612C672D862D80
S1131A300E946E0361E068968FAD689769969FADCA
S1131A4069970E949A04000F8FEFE81AF80A9FEF33
S1131A50891A990AA8E02A0E311CB4E0AB0EB11C15
S1131A606496EFAD6497E65F6496EFAF6497F6E033
S1131A70EF16F10409F0D7CDD0902D3110922D310D
S1131A80E12CF12C91C0DD2009F47EC0FE013196D9
S1131A9081E01FEF60E04D2D50E0762D072D082EDC
S1131AA0000C990B9A0128233923232BE9F01F3FBB
S1131AB0D1F04480558066807780A1E0B0E0AC0F1F
S1131AC0BD1F28E01202A00DB11D112414968D90A3
S1131AD09D90AD90BC901797481459046A047B04F8
S1131AE018F4162F01C0162F880F6F5F38966630D2
S1131AF0B1F6672E702E812F012E000C990BE1E0B8
S1131B00F0E0EC0FFD1F38E01302E00DF11D11248D
S1131B10DF01149613962C9113972F9312962C9100
S1131B2012972F9311962C912F9324812F93238115
S1131B302F9322812F9321812F9320812F9301961C
S1131B409F938F9381EC9EE29F938F938CED90E310
S1131B509F938F930E9452126CED70E380EA98E099
S1131B600E943F1081E090E002C0880F991F1A95EF
S1131B70E2F78095D822CDBFDEBF31F461ED7EE27D
S1131B8080EA98E00E943F100E943E0E34CCFFEFA2
S1131B90EF1AFF0A22E3E216F1040CF474CF17CD16
S1131BA032E065963FAF6597D11070CFEDCFEF92DD
S1131BB00F93FC016093B0004E29408B222311F057
S1131BC0618301C06283002311F0658301C06683D1
S1131BD00F91EF900895877098ED94BF8093400023
S1131BE008958C776370682B88ED84BF60934100FF
S1131BF00895E0E5F0E09681997F892B8683089526
S1131C00E0EFF0E080818260808388ED84BF81E032
S1131C1080838081846080838FE193E00197F1F772
S1131C2000C00000808188608083818183FFFDCFB4
S1131C300895FC0165837683089580933131409340
S1131C40303110922F31E0E0FBE0108211821382D8
S1131C50148281E0808710A211A266A377A366ABE9
S1131C6077AB86831782E0EAF0E082818160828329
S1131C700895809131318093000B089580912E3125
S1131C808823E1F380912E31815080932E31089581
S1131C901F920F920FB60F9211248F939F938091EE
S1131CA02F318F5F80932F3190913031891738F025
S1131CB010922F3180912E318F5F80932E319F911E
S1131CC08F910F900FBE0F901F901895607CFC01B0
S1131CD06583862F0895FC016093B000108A6183A8
S1131CE065830895FC01673069F028F4653081F05C
S1131CF0663031F031C0683039F0693039F02CC0C9
S1131D0031E007C032E005C033E003C037E001C072
S1131D1030E0413021F0423009F588E001C080E034
S1131D202F3471F028F4253449F02E3459F018C0BA
S1131D302E3641F02F3621F0253691F490E203C07F
S1131D4090E301C090E02581832B892B207C982F80
S1131D50922B958380E0089581E0089582E00895B0
S1131D6083E008954F925F926F927F928F929F9239
S1131D70AF92BF92CF92DF92EF92FF920F931F9395
S1131D80CF936C0149015A01662329F0FC01848137
S1131D908460848304C0FC0184818B7F8483F60186
S1131DA0848182FF16C0D801C701689412F8B695E1
S1131DB0A795979587951694D1F7B801A701032E97
S1131DC036E176956795579547953A95D1F7302D35
S1131DD015C0D801C701689413F8B695A7959795CF
S1131DE087951694D1F7B801A701032E37E17695AC
S1131DF06795579547953A95D1F7302D88159905EC
S1131E00AA05BB0508F4ACC084169506A606B70659
S1131E1008F4A8C0F601848182FD04C0880C991CD2
S1131E20AA1CBB1CC801B701A50194010E94111290
S1131E302F3F31054105510508F496C08FEF90E01E
S1131E40A0E0B0E0C9EF05C0281739074A075B07CF
S1131E5058F0880F991FAA1FBB1FCD3F0CF4816057
S1131E60CF5FC73089F755C0CC230CF052C0D501E1
S1131E70C401880F991FAA1FBB1F880F991FAA1F8F
S1131E80BB1F880F991FAA1FBB1F27013801481ABF
S1131E90590A6A0A7B0ACE3F14F58DEF9FEF8C1B1B
S1131EA09109C7FD9395B301A20104C0440F551FC6
S1131EB0661F771F8A95D2F7D501C401B695A795F9
S1131EC0979587958A019B01080F191F2A1F3B1FAD
S1131ED0C901B801A50194010E94111237C083E021
S1131EE08C0FA501940104C0220F331F441F551FFA
S1131EF08A95D2F7DA01C901B695A7959795879582
S1131F00BC01CD01640D751D861D971D0E94111223
S1131F101DC083E08C0FA501940104C0220F331F60
S1131F20441F551F8A95D2F7DA01C901B695A795C2
S1131F3097958795BC01CD016E0D7F1D801F911F64
S1131F400E9411122150310941095109832F8F70C8
S1131F50C295C07FC82BF601C783268380E01AC0D0
S1131F6081E018C081E016C0D501C401880F991F13
S1131F70AA1FBB1F880F991FAA1FBB1F880F991F79
S1131F80AA1FBB1F27013801481A590A6A0A7B0A8B
S1131F90C9EF83CFCF911F910F91FF90EF90DF9006
S1131FA0CF90BF90AF909F908F907F906F905F90F5
S1131FB04F900895CF92DF92EF92FF920F931F9369
S1131FC0CF93DF93EC018C818B7F8C83D901C80183
S1131FD0B695A79597958795481759076A077B077C
S1131FE078F46A017B01CC0CDD1CEE1CFF1CC901DA
S1131FF0B801A70196010E9411122150310902C0B3
S113200020E030E0832F8F708F832E8380E0DF9178
S1132010CF911F910F91FF90EF90DF90CF90089593
S1132020EF92FF920F931F93FC01862FBA01A9012F
S11320309581907C9034B9F018F4992331F019C04B
S1132040903851F0903C79F014C09A01AB01682F9C
S1132050CF010E94B20E0EC09A01AB0160E0CF0125
S11320600E94B20E07C098018701CF010E94DA0FC7
S113207001C081E01F910F91FF90EF900895FC0142
S1132080DB018C91882341F01196918195FFFDCF5E
S113209080838D918111F9CF0895FC014250423023
S11320A010F480E401C080E06093B000808B618311
S11320B066830895FC016093B000108A6183658390
S11320C00895FC016D7F613011F492E001C090E04D
S11320D02581297F422B492B458308950E94821034
S11320E00C946A110E94631158F00E945C1140F034
S11320F029F45F3F29F00C94531151110C949E1153
S11321000C9459110E947B1168F39923B1F3552360
S113211091F3951B550BBB27AA27621773078407F6
S113212038F09F5F5F4F220F331F441FAA1FA9F38C
S113213035D00E2E3AF0E0E832D091505040E6957A
S1132140001CCAF72BD0FE2F29D0660F771F881FDB
S1132150BB1F261737074807AB07B0E809F0BB0BCE
S1132160802DBF01FF2793585F4F3AF09E3F5105E2
S113217078F00C9453110C949E115F3FE4F3983E55
S1132180D4F3869577956795B795F7959F5FC9F7CB
S1132190880F911D9695879597F90895E1E0660F4C
S11321A0771F881FBB1F621773078407BA0720F0C5
S11321B0621B730B840BBA0BEE1F88F7E09508952E
S11321C00E94E7106894B1110C949E1108950E9426
S11321D0831188F09F5798F0B92F9927B751B0F021
S11321E0E1F0660F771F881F991F1AF0BA95C9F797
S11321F014C0B13091F00E949D11B1E008950C9487
S11322009D11672F782F8827B85F39F0B93FCCF339
S1132210869577956795B395D9F73EF49095809513
S1132220709561957F4F8F4F9F4F0895E89409C033
S113223097FB3EF490958095709561957F4F8F4FF5
S11322409F4F9923A9F0F92F96E9BB279395F6950B
S1132250879577956795B795F111F8CFFAF4BB0F89
S113226011F460FF1BC06F5F7F4F8F4F9F4F16C0ED
S1132270882311F096E911C0772321F09EE8872F77
S1132280762F05C0662371F096E8862F70E060E033
S11322902AF09A95660F771F881FDAF7880F9695AC
S11322A0879597F9089597F99F6780E870E060E053
S11322B008959FEF80EC089500240A9416161706DB
S11322C018060906089500240A9412161306140623
S11322D005060895092E0394000C11F4882352F086
S11322E0BB0F40F4BF2B11F460FF04C06F5F7F4F3E
S11322F08F4F9F4F089557FD9058440F551F59F025
S11323005F3F71F04795880F97FB991F61F09F3FDE
S113231079F087950895121613061406551FF2CF07
S11323204695F1DF08C0161617061806991FF1CF57
S113233086957105610508940895E894BB2766277E
S11323407727CB0197F908950E94B7110C946A116D
S11323500E945C1138F00E94631120F0952311F063
S11323600C9453110C94591111240C949E110E9435
S11323707B1170F3959FC1F3950F50E0551F629F39
S1132380F001729FBB27F00DB11D639FAA27F00DCA
S1132390B11DAA1F649F6627B00DA11D661F829FF1
S11323A02227B00DA11D621F739FB00DA11D621FD6
S11323B0839FA00D611D221F749F3327A00D611DF3
S11323C0231F849F600D211D822F762F6A2F1124D5
S11323D09F5750409AF0F1F088234AF0EE0FFF1F08
S11323E0BB1F661F771F881F91505040A9F79E3F5F
S11323F0510580F00C9453110C949E115F3FE4F34B
S1132400983ED4F3869577956795B795F795E795B4
S11324109F5FC1F7FE2B880F911D9695879597F9BD
S11324200895A1E21A2EAA1BBB1BFD010DC0AA1F11
S1132430BB1FEE1FFF1FA217B307E407F50720F029
S1132440A21BB30BE40BF50B661F771F881F991FA4
S11324501A9469F760957095809590959B01AC01ED
S1132460BD01CF010895052E97FB1EF400940E9430
S11324704A1257FD07D00E94111207FC03D04EF4F4
S11324800C944A1250954095309521953F4F4F4FEB
S11324905F4F089590958095709561957F4F8F4F0C
S11324A09F4F08950F931F93CF93DF93CDB7DEB75C
S11324B02E97CDBFDEBF0E891F8986E08C830983EA
S11324C01A838FEF9FE78D839E83AE01465E5F4F35
S11324D0688D798DCE0101960E947B12EF81F8857B
S11324E0E00FF11F10822E96CDBFDEBFDF91CF919A
S11324F01F910F9108952F923F924F925F926F9286
S11325007F928F929F92AF92BF92CF92DF92EF927F
S1132510FF920F931F93CF93DF93CDB7DEB72B9723
S1132520CDBFDEBF6C017B018A01FC0116821782DC
S1132530838181FFCCC1CE0101963C01F6019381D8
S1132540F70193FD859193FF81917F01882309F41D
S1132550BAC1853239F493FD859193FF81917F014E
S1132560853229F4B60190E00E949514E7CF912CAE
S1132570212C312CFFE1F315D8F08B3279F038F4AB
S1132580803279F08332A1F4232D20611DC08D3275
S113259061F0803369F4232D216016C0832D82609D
S11325A0382EE32DE4603E2E2AC0F32DF8601DC0C2
S11325B037FC2DC020ED280F2A3040F08E32B9F4BC
S11325C036FC81C1232D2064322E19C036FE06C08C
S11325D08AE0989E200D1124922E11C0EAE02E9ECE
S11325E0200D1124222EF32DF0623F2E08C08C36CC
S11325F021F4832D8068382E02C0883641F4F70117
S113260093FD859193FF81917F018111B3CF982F21
S11326109F7D9554933028F40C5F1F4F9FE399835B
S11326200DC0833631F0833771F0833509F059C01A
S113263021C0F801808189830E5F1F4F8824839411
S1132640912C530113C02801F2E04F0E511CF801E4
S1132650A080B18036FE03C0692D70E002C06FEF28
S11326607FEFC5010E948A144C018201F32DFF778C
S11326703F2E16C0280122E0420E511CF801A08012
S1132680B18036FE03C0692D70E002C06FEF7FEFAA
S1132690C5010E947F144C01F32DF0683F2E820186
S11326A033FC1BC0822D90E088169906B0F4B60165
S11326B080E290E00E9495142A94F4CFF50137FC4F
S11326C0859137FE81915F01B60190E00E949514D7
S11326D021102A9421E0821A91088114910471F73F
S11326E0E8C0843611F0893641F5F80137FE07C099
S11326F060817181828193810C5F1F4F08C060816A
S11327007181072E000C880B990B0E5F1F4FF32D60
S1132710FF763F2E97FF09C090958095709561953F
S11327207F4F8F4F9F4FF0683F2E2AE030E0A30188
S11327300E94D114882E861845C0853731F4232D84
S11327402F7EB22E2AE030E025C0932D997FB92E3A
S11327508F36C1F018F4883579F0B5C0803719F098
S1132760883721F0B0C0E92FE061BE2EB4FE0DC061
S1132770FB2DF460BF2E09C034FE0AC0292F266049
S1132780B22E06C028E030E005C020E130E002C0EF
S113279020E132E0F801B7FE07C0608171818281D7
S11327A093810C5F1F4F06C06081718180E090E0CF
S11327B00E5F1F4FA3010E94D114882E8618FB2D93
S11327C0FF773F2E36FE0DC0232D2E7FA22E8914B7
S11327D058F434FE0BC032FC09C0832D8E7EA82E23
S11327E005C0B82CA32C03C0B82C01C0B92CA4FE7E
S11327F00FC0FE01E80DF11D8081803321F49A2D74
S1132800997EA92E09C0A2FE06C0B394B39404C055
S11328108A2D867809F0B394A3FC11C0A0FE06C0EB
S1132820B21488F4280C922C9B180EC0B21460F4D5
S1132830B60180E290E00E949514B394F7CFB214ED
S113284018F42B1802C0982C212CA4FE10C0B60139
S113285080E390E00E949514A2FE17C0A1FC03C07F
S113286088E790E002C088E590E0B6010CC08A2DAC
S1132870867859F0A1FE02C08BE201C080E2A7FC79
S11328808DE2B60190E00E949514891438F4B601E3
S113289080E390E00E9495149A94F7CF8A94F30110
S11328A0E80DF11D8081B60190E00E94951481101D
S11328B0F5CF222009F442CEB60180E290E00E94D6
S11328C095142A94F6CFF6018681978102C08FEF82
S11328D09FEF2B96CDBFDEBFDF91CF911F910F915C
S11328E0FF90EF90DF90CF90BF90AF909F908F902C
S11328F07F906F905F904F903F902F900895FC01D0
S11329000590615070400110D8F7809590958E0F16
S11329109F1F0895FC016150704001900110D8F789
S1132920809590958E0F9F1F08950F931F93CF93BB
S1132930DF93FB01238121FD03C08FEF9FEF2CC0A8
S113294022FF16C0468157812481358142175307DF
S113295044F4A081B1819D012F5F3F4F20833183D7
S11329608C93268137812F5F3F4F2683378314C092
S11329708B01EC01FB010084F185E02D1995892B75
S1132980E1F6D80116968D919C91179701961696AB
S11329908D939C931797CE01DF91CF911F910F9147
S11329A00895FA01AA27283051F1203181F1E894E1
S11329B06F936E7F6E5F7F4F8F4F9F4FAF4FB1E02E
S11329C03ED0B4E03CD0670F781F891F9A1FA11D29
S11329D0680F791F8A1F911DA11D6A0F711D811D2A
S11329E0911DA11D20D009F468943F912AE0269FEF
S11329F011243019305D3193DEF6CF010895462F4E
S1132A004770405D4193B3E00FD0C9F7F6CF462F2E
S1132A104F70405D4A3318F0495D31FD4052419397
S1132A2002D0A9F7EACFB4E0A69597958795779554
S1132A306795BA95C9F700976105710508959B01DB
S1132A40AC010A2E06945795479537952795BA9564
S1132A50C9F7620F731F841F951FA01D0895F89472
S1052A60FFCFA2
S1132A623F065B4F666D7D077F6F777C395E7971B8
S1132A724000490A0F207E192000000000000000D7
S1132A820000000000000000000000000000000040
S1132A9200FC0DFC0D00000000000000000000001E
S1132AA20000003C003C0000003C003C0000000030
S1132AB200000000002002F80F20022002F80F207C
S1132AC20200000000000000000000200250025C2E
S1132AD20E900210010000000000000000300048C7
S1132AE20C3802880168061809000600000000007C
S1132AF200B807440844084408B807000400030067
S1132B0200000000000000000000001C00000000A3
S1132B1200000000000000000000000000F0030CB0
S1132B220C02100000000000000000000000000081
S1132B320002100C0CF00300000000000000000072
S1132B42000000100054003800540010000000007F
S1132B520000000000000100010001E00F0001007C
S1132B62010001000000000000000000000030002D
S1132B721C000C0000000000000000000000010026
S1132B820100010001000100010001000000000039
S1132B9200000000000000000C000C000000000017
S1132BA200000000000000000C0003C00030000818
S1132BB2000000000000000000F807040984084433
S1132BC2082408F8070000000000000000000010BC
S1132BD2080808FC0F0008000800000000000000BC
S1132BE2000808040C040BC408380800080000009C
S1132BF200000000000804040844084408B8070060
S1132C0200000000000000000080034002300208BF
S1132C1202FC0F00020000000000000000780444DF
S1132C2208240824082408C4070000000000000047
S1132C3200F00388044408440884040003000000EC
S1132C420000000000040004080406840164001C5F
S1132C52000000000000000000B8074408440844D3
S1132C62084408B807000000000000000078088447
S1132C7208840884044402F80100000000000000F3
S1132C820000000000C00CC00C00000000000000A6
S1132C9200000000000030C01CC00C000000000056
S1132CA200000000000000000000018002800240D9
S1132CB2044004200800000000000000000000405E
S1132CC202400240024002400240020000000000B2
S1132CD20000002008400440048002800200010039
S1132CE2000000000008000400840D4400380000C5
S1132CF2000000000000000000C0072008D01750A8
S1132D0214D0171014E003000000000000000C802F
S1132D120370010C0170018003000C00000000002C
S1132D2200FC0F440844084408B8070000000000EF
S1132D320000000000F00308040408040804080862
S1132D42040000000000000000FC0F040804080452
S1132D52080804F00300000000000000000000FC6A
S1132D620F4408440844080408000000000000005E
S1132D72000000FC0F8400840084000400000000B2
S1132D820000000000F00308040408840884088892
S1132D920F0000000000000000FC0F400040004053
S1132DA2004000FC0F0000000000000000000004CE
S1132DB2080408FC0F0408040800000000000000D6
S1132DC2000408040804080404FC030000000000D2
S1132DD20000000000FC0F80004000A00010030C63
S1132DE20C0000000000000000FC0F0008000800B6
S1132DF208000800080000000000000000FC0F307A
S1132E0200C000C0003000FC0F0000000000000001
S1132E1200FC0F1800600080010006FC0F00000097
S1132E220000000000F0030804040804080804F089
S1132E32030000000000000000FC0F040104010470
S1132E4201880070000000000000000000F0030888
S1132E5204041804280824F02300000000000000E1
S1132E6200FC0F8400840084014802300C0000003E
S1132E7200000000001804240844084408840808D8
S1132E82070000000000000000040004000400FC2D
S1132E920F040004000400000000000000FC07000E
S1132EA208000800080008FC0700000000000000F9
S1132EB2000C00F000000700080007F0000C0000FE
S1132EC20000000000FC01000EC003C003000EFC61
S1132ED2010000000000000000040818062001C0E0
S1132EE20020011806040800000000000004001875
S1132EF200E000000FE000180004000000000000E1
S1132F02000408040E0409C40834080C080008006C
S1132F120000000000FE1F0210021000000000006A
S1132F2200000000000000000000000C003000C09F
S1132F32000003000C000000000000000002100268
S1132F4210FE1F000000000000000000000000004E
S1132F520000001000080004000800100000000037
S1132F62000000000000000008000800080008003B
S1132F720800000000000000000000000004000837
S1132F820010000000000000000000000000062005
S1132F9209200920092005C00F00080000000000D4
S1132FA200FE0F4008200820082004C0030000008F
S1132FB20000000000C00720082008200820082084
S1132FC208000000000000000080034004200820E4
S1132FD20820082008FE0F000000000000C007209F
S1132FE2092009200920092009C009000000000065
S1132FF20020082008F80F240824082408000000F0
S11330020000000000C0072028204820482044E097
S11330123F0000000000000000FE0F4000200020DE
S1133022002000C00F00000000000000000000208B
S1133032082008E40F000800080000000000000057
S1133042000040204020402020E41F000000000037
S11330520000000000FE0F00018001400220040075
S1133062080000000000000000040804080408FC32
S11330720F000800080008000000000000E00F40F4
S1133082002000C00F2000E00F000000000000003C
S113309200E00F4000200020002000C00F000000CC
S11330A20000000000C0072008200820082008C0F3
S11330B2070000000000000000E07F400820082014
S11330C2082008C0070000000000000000C007201C
S11330D208200820082008E07F000000000000000B
S11330E20020082008C00F4008200820000000002B
S11330F20000000000C0082009200920092009203E
S113310206000000000000000020002000F007205C
S113311208200820080000000000000000E007006A
S11331220800080008E00700080000000000000092
S1133132002000C0000003000C0003C000200000B7
S11331420000000000E001000E80018001000EE09A
S11331520100000000000000000000200CC002007A
S113316201C002200C00000000000000002000C08A
S113317200006700180007C00020000000000000E3
S1133182002008200C200A2009A008600800000082
S11331920000000000000000000000CC0C3213000C
S11331A20000000000000000000000000000003EDB
S11331B21F000000000000000000000000000000EA
S11331C2003213CC0C0000000000000000000000DC
S11331D200080004000400080010001000080000A9
S11331E20000000000060A207E8B27000000000079
S11331F20000000000000000000000BE000000000B
S113320200000000000E0000000E00000000001488
S1133212003E0014003E00140000004C009200FF27
S11332220192006400000086006A005400AC00C2EF
S11332320000006C009200AA004600A000000000FA
S11332420000000E0000000000000000000000FE6C
S11332520001010000000000000101FE0000000066
S113326200000014001C003E001C001400000010AA
S11332720010007C0010001000000000000002C0DA
S11332820100000000000000001000100010000007
S113329200000000000000C0000000000000000068
S11332A201C00160001800060001007C00A2009227
S11332B2008A007C00000004008400FE00800000FC
S11332C20000008400C200A20092008C00000044AE
S11332D2008200920092006C00000030002800245A
S11332E200FE00200000004E008A008A008A00725C
S11332F20000007C00920092009200600000000234
S1133302000200E20012000E0000006C0092009223
S11333120092006C0000000C009200920092007C6B
S113332200000000000000D80000000000000000BF
S1133332000002D00100000000000000001000287C
S113334200440082000000280028002800280028E9
S11333520000000000820044002800100000000465
S1133362000200E20012000C0000007C008200BA9D
S113337200AA00BC000000FC00220022002200FC83
S1133382000000FE009200920092006C0000007C9B
S11333920082008200820044000000FE008200825B
S11333A20082007C000000FE0092009200920082E3
S11333B2000000FE00120012001200020000007C55
S11333C20082008200920074000000FE00100010CF
S11333D2001000FE00000082008200FE00820082D3
S11333E200000060008000800080007E000000FE7B
S11333F20038006C00C60082000000FE00800080DD
S113340200800080000000FE000C0018000C00FE8A
S1133412000000FE000C0010006000FE0000007CB2
S1133422008200820082007C000000FE0012001272
S11334320012000C0000007C008200C20082007CAA
S1133442010000FE00120012001200EC0000004C09
S1133452009200920092006400000002000200FE4A
S1133462000200020000007E008000800080007ED6
S113347200000006003800C0003800060000007E8C
S1133482008000700080007E00000082006C003822
S1133492006C008200000002000C00F8000C000224
S11334A2000000C200A20092008A00860000000010
S11334B2000000FF01010100000000010007000CF0
S11334C2003000C000000100000101FF0100000003
S11334D200000008000400020004000800000000CC
S11334E202000200020002000200020000010002C7
S11334F200000000000000E800A800A800A800F0F6
S1133502000000FE0088008800880070000000703F
S1133512008800880088005000000070008800883D
S1133522008800FE0000007000A800A800A800B0F7
S113353200000000008800FE008A00020000007003
S113354200880288028802F8010000FE00080008D0
S1133552000800F000000000008800FA008000006B
S113356200000008020802FA01000000000000FE48
S1133572002000300048008800000082008200FE23
S113358200800080000000F8000800F8000800F83D
S1133592000000F800080008000800F000000070B5
S11335A20088008800880070000000F80388008802
S11335B2008800700000007000880088008800F80D
S11335C2030000F80008000800080018000000B812
S11335D200A800A800A800E8000000000008007E7F
S11335E2008800880000007800800080008000F8D5
S11335F200000008007000800070000800000078DD
S113360200800078008000780000008800D8002044
S113361200D800880000007800800280028002F84E
S11336220100008800C800A800980088000000007B
S1133632001000EE0001010000000000000000FF85
S11336420100000000000000000101EE0010000073
S11336520000000400020004000800040000000648
S113366207207E052C00000000000000005F00001F
S113367200000700070000147F147F1400242A7F2F
S11336822A120023130864620036495522500000AE
S11336920503000000001C224100000041221C001E
S11336A200082A1C2A080008083E080800005030B6
S11336B200000008080808080000606000000020FC
S11336C210080402003E5149453E0000427F40007A
S11336D2004261514946002141454B310018141200
S11336E27F10002745454539003C4A4949300001CD
S11336F27109050300364949493600064949291E1C
S1133702000036360000000056360000000008149F
S1133712224100141414141400412214080000025B
S11337220151090600324979413E007E1111117E90
S1133732007F49494936003E41414122007F4141CF
S1133742221C007F49494941007F09090101003EC9
S113375241415132007F0808087F0000417F410047
S1133762002040413F01007F08142241007F404075
S11337724040007F0204027F007F0408107F003E65
S11337824141413E007F09090906003E4151215E43
S1133792007F091929460046494949310001017F40
S11337A20101003F4040403F001F2040201F007F96
S11337B22018207F006314081463000304780403B0
S11337C20061514945430000007F41410002040861
S11337D210200041417F0000000402010204004065
S11337E24040404000000102040000205454547838
S11337F2007F484444380038444444200038444458
S1133802487F00385454541800087E090102000805
S11338121454543C007F080404780000447D4000A2
S1133822002040443D0000007F1028440000417FF6
S11338324000007C04180478007C080404780038F2
S113384244444438007C1414140800081414187CEA
S1133852007C0804040800485454542000043F44E3
S11338624020003C4040207C001C2040201C003CA6
S11338724030403C004428102844000C5050503C36
S1133882004464544C440000083641000000007FA8
S11338920000000041360800000201020402000098
S11338A2401C4600401C4600401C460000FA4300EF
S11338B2409C4600401C46202020202020002564F5
S11338C22E25346C642E25316C6420570025642E19
S11338D23F3F3F3F3F3F20570025642E2531306C48
S11338E275206D730025642E2531306C7520696D49
S11338F2700025642E2D2D2D2D2D2D20570025648D
S11339022E2D2D2D2D2D2D2D2D2D2D206D7300259C
S1133912642E2D2D2D2D2D2D2D2D2D2D20696D70E7
S11339220025642C202531306C752C202531306C17
S1073932750D0A0001
S9030000FC
