:100000000C94FE000C941F010C941F010C941F0112
:100010000C941F010C941F010C941F010C941F01E0
:100020000C941F010C941F010C941F010C941F01D0
:100030000C941F010C941F010C941F010C941F01C0
:100040000C941F010C941F010C941F010C941F01B0
:100050000C941F010C941F010C941F010C941F01A0
:100060000C941F010C941F010C941F010C941F0190
:100070000C941F010C941F010C941F010C941F0180
:100080000C941F010C941F010C941F010C941F0170
:100090000C941F010C941F010C941F010C941F0160
:1000A0000C941F010C941F010C941F010C941F0150
:1000B0000C941F010C941F010C941F010C941F0140
:1000C0000C941F010C941F010C941F010C941F0130
:1000D0000C941F010C941F010C941F010C941F0120
:1000E0000C941F010C941F010C941F010C941F0110
:1000F0000C941F010C941F010C941F010C941F0100
:100100000C941F010C941F010C941F010C941F01EF
:100110000C941F010C941F010C941F010C941F01DF
:100120000C941F010C941F010C941F010C941F01CF
:100130000C941F010C941F010C941F010C941F01BF
:100140000C941F010C941F010C941F010C941F01AF
:100150000C941F010C941F010C941F010C941F019F
:100160000C941F010C941F010C941F010C941F018F
:100170000C941F010C941F010C941F010C941F017F
:100180000C941F010C941F010C941F010C941F016F
:100190000C941F010C941F010C941F010C941F015F
:1001A0000C941F010C941F010C941F010C941F014F
:1001B0000C948C070C941F010C941F010C941F01CC
:1001C0000C941F010C941F010C941F010C941F012F
:1001D0000C941F010C941F010C941F010C941F011F
:1001E0000C941F010C941F010C941F010C941F010F
:1001F0000C941F010C941F010C941F0111241FBEAD
:10020000CFEFCDBFDFE5DEBF00E00CBF1EE2A0E018
:10021000B0E2E0E6FCE100E00BBF02C007900D9207
:10022000A035B107D9F720E3A0E5BEE201C01D92D9
:10023000AE35B207E1F70E94CD090C942E0E0C9456
:100240000000EF92FF920F931F93E12C01E021E059
:1002500040E068E080E096E00E94780700E021E05E
:1002600040E061E080E696E00E94780768E080EA7E
:1002700096E00E94500943E062E080E696E00E942A
:10028000430968E080E696E00E94AF0760EC80EAF0
:1002900099E00E94AA0740E063E080EA99E00E94AA
:1002A000570910E8E12E14E8F12E0EE110E020E4E9
:1002B00032E44FE050E060E080EA99E00E941409E7
:1002C000E0EAF9E0848188608483848180618483AA
:1002D0001F910F91FF90EF90089591E0813009F008
:1002E00090E0892F8195E4E5FEE224E530E38193F7
:1002F000E217F307E1F72FE740E063E080E00E94B8
:10030000640608957F928F929F92AF92BF92CF9290
:10031000DF92EF92FF920F931F93CF93DF93182FEB
:10032000062F922E403208F0A4C088232CF46623B6
:100330000CF49FC01FE703C066230CF40FE70117FE
:1003400018F4812F102F082FA42EA694A694A694FB
:10035000477081E0B82E01C0BB0C4A95EAF79A2D90
:100360009F70906B88E08093A60681E0809366067C
:10037000E0EAF9E0818185FFFDCF9093A009E0EAF2
:10038000F9E0818186FFFDCFE0EAF9E081818064B8
:1003900081838081E0EAF6E088E08583912F9F7772
:1003A00092959F709061868381E080936606E0EA73
:1003B000F9E0818185FFFDCF9093A009E0EAF9E0A3
:1003C000818186FFFDCFE0EAF9E08181806481834D
:1003D0008081E0EAF6E088E08583912F9F70868334
:1003E00081E080936606E0EAF9E0818185FFFDCF38
:1003F0009093A009E0EAF9E0818186FFFDCFE0EA71
:10040000F9E0818180648183808188E08093A50602
:10041000011778F10F2EF0EACF2EF6E0DF2EF02D47
:100420006894772473F80F2EF0E6EF2EF6E0FF2E97
:10043000F02D88248394C0EAD9E0292D4B2D612F1B
:100440008A2D0E940C07F6017682F7018582998138
:1004500095FFFDCF8883898186FFFDCF89818064E8
:1004600089838881F7018682F60175821F5F0117F3
:1004700020F7DF91CF911F910F91FF90EF90DF90C8
:10048000CF90BF90AF909F908F907F9008952F92C4
:100490003F924F925F926F927F928F929F92AF9214
:1004A000BF92CF92DF92EF92FF920F931F93CF9361
:1004B000DF9388230CF4A9C0603218F0403208F0B2
:1004C000A4C0603208F06FE1403208F04FE14617F7
:1004D00018F4962F642F492F662E669466946694BE
:1004E000C42EC694C694C694C61408F48EC0722E48
:1004F000982E67702FEF30E0190102C0220C331CD8
:100500006A95E2F7842F90E08095909587709927FF
:1005100002C0359527958A95E2F7892D8F778295C8
:100520008F708061882E062D422D0F2EF0EAEF2E5F
:10053000F6E0FF2EF02D18E00F2EF0E6AF2EF6E0DD
:10054000BF2EF02DDD24D394C0EAD9E0892D8F7021
:10055000482E55245A94322E09C0601621F0C0123C
:1005600004C0432D03C0422D01C0452D272D692D08
:10057000802F0E940C07202F2F70206BF70116830D
:10058000F501D682998195FFFDCF2883998196FF49
:10059000FDCF9981906499839881F7011583168323
:1005A000F501D682998195FFFDCF8882998196FFCA
:1005B000FDCF9981906499839881F7011583168303
:1005C000F501D682998195FFFDCF4882998196FFEA
:1005D000FDCF9981906499839881F70115831683E3
:1005E000F501D582998195FFFDCF8883898186FFAA
:1005F000FDCF8981806489838881F501D682F701E6
:1006000015830F5FC01608F0A8CFDF91CF911F911F
:100610000F91FF90EF90DF90CF90BF90AF909F90A1
:100620008F907F906F905F904F903F902F900895A4
:10063000EF92FF920F931F93CF93DF93C82FD62F84
:10064000142FF22E481710F4C42F182FFD1618F48B
:100650008D2FDF2DF82ECC2344F1D03230F5EE2053
:1006600061F01C1710F1202F4F2D6D2F8C2F0E9441
:100670004702CF5F1C17B8F718C0202F4D2F612FEE
:100680008C2F0E948201202F4F2D612F8C2F0E94D2
:100690008201202F4F2D6D2F8C2F0E944702202F7B
:1006A0004F2D6D2F812F0E944702DF91CF911F9117
:1006B0000F91FF90EF9008951092532E1092522EAA
:1006C0008CEE9BE28093502E9093512E08950E94C1
:1006D0003E050E945C030895813061F018F082307D
:1006E00089F018C08CEE9BE28093502E9093512E8F
:1006F00080E0089582E797E28093502E9093512EE8
:1007000081E0089580E090E28093502E9093512EE6
:1007100082E008958FEF0895882314F08093532E7C
:10072000603210F46093522E0895E091502EF091B3
:10073000512E81810895E091502EF091512E8081AB
:1007400008952F923F924F925F927F928F929F9245
:10075000AF92BF92CF92DF92EF92FF920F931F93CF
:10076000CF93DF9300D01F92CDB7DEB7E091502E2C
:10077000F091512E2281821708F4EAC093819817D4
:1007800008F4E8C041813091522EE42EE30E9FEF31
:100790009E0D903208F0E0C05081F090532EC52E8F
:1007A000CF0CCA94CC200CF4D9C0D62E732E7694DC
:1007B00076947694E92EE694E694E694642F669512
:1007C0006695669570E06F5F7F4F90E0821B9109A0
:1007D000689FF001699FF00D789FF00D11245E9FD6
:1007E00040015F9F900C11248B829C8280E290E0FC
:1007F000841B91094FEF5FEFBA014A015B0104C00E
:10080000B694A794979487948A95D2F7D501C4019A
:100810003770A32EB12CA982BA821C012D0104C00D
:10082000220C331C441C551C3A95D2F7CF1408F403
:100830007CC05201410180949094A094B0944F2DBB
:100840006E2D872D0E9427078B019C01E091502E71
:10085000F091512E64817581AB81BC81A60FB71FC9
:100860008C9190E0A0E0B0E04B815C814F5F5F4FE6
:10087000E181E930A0F0FB01E40FF51F408150E079
:10088000542F442760E070E0842B952BA62BB72BC8
:100890004B815C814E5F5F4F4B835C8302C04B8317
:1008A0005C83098004C0880F991FAA1FBB1F0A948C
:1008B000D2F751E0D516B9F0D51620F042E0D416A3
:1008C000F9F02AC0B201A101402B512B622B732BEE
:1008D00080959095A095B0958C019D0104231523DA
:1008E0002623372319C0B501A401402351236223D5
:1008F00073238C019D01042B152B262B372B0CC049
:10090000B201A10140275127622773278C019D0165
:1009100004271527262737274F2D6E2D872D0E9458
:100920005E07F394CF1408F08ACF2C2D4091532EFC
:100930006E2D872D0E946406E091502EF091512E6D
:100940009091532E8081890F8093532E80E007C0B1
:1009500081E005C081E003C082E001C083E024960D
:10096000CDBFDEBFDF91CF911F910F91FF90EF9030
:10097000DF90CF90BF90AF909F908F907F905F90CF
:100980004F903F902F9008951F93CF93DF93EC01EA
:10099000162F8881882371F18D3021F41092532E07
:1009A000FE0123C08A3061F4E091502EF091512E67
:1009B0009091522E8181890F8093522EFE0115C095
:1009C000612F0E94A103833079F41092532EE0919D
:1009D000502EF091512E9091522E8181890F80934B
:1009E000522EFE01319701C0FE01EF012196818157
:1009F0008111D2CFDF91CF911F9108958E3108F4EC
:100A00008EE1893208F088E298E09093A60691E0A2
:100A100090936606E0EAF9E0918195FFFDCF91E8B9
:100A20009093A009E0EAF9E0918196FFFDCFE0EA1A
:100A3000F9E09181906491839081E0EAF6E098E09A
:100A40009583282F20952F73968391E090936606C7
:100A5000E0EAF9E0918195FFFDCF2093A009E0EA5B
:100A6000F9E0918196FFFDCFE0EAF9E09181906491
:100A70009183908198E09093A50608951F93CF935A
:100A8000DF93E0E0F6E088E0868396E09A95F1F760
:100A900000C0858396E09A95F1F700C0E0E6F6E0A5
:100AA00091E096838093A6069683E0EAF9E081813F
:100AB00085FFFDCF80EA8093A009E0EAF9E081811B
:100AC00086FFFDCFE0EAF9E0818180648183808147
:100AD000E0EAF6E088E08583868381E0809366061D
:100AE000E0EAF9E0818185FFFDCF86EA8093A009E5
:100AF000E0EAF9E0818186FFFDCFE0EAF9E081815B
:100B0000806481838081E0EAF6E088E085838683E3
:100B100081E080936606E0EAF9E0818185FFFDCF00
:100B200088EC8093A009E0EAF9E0818186FFFDCF9F
:100B3000E0EAF9E08181806481838081E0EAF6E087
:100B400088E08583868381E080936606E0EAF9E0A9
:100B5000818185FFFDCF82EA8093A009E0EAF9E078
:100B6000818186FFFDCFE0EAF9E0818180648183A5
:100B70008081E0EAF6E088E08583868381E08093E7
:100B80006606E0EAF9E0818185FFFDCF8FE2809380
:100B9000A009E0EAF9E0818186FFFDCFE0EAF9E013
:100BA0008181806481838081E0EAF6E088E085834A
:100BB000868381E080936606E0EAF9E0818185FF23
:100BC000FDCF88EF8093A009E0EAF9E0818186FFFC
:100BD000FDCFE0EAF9E08181806481838081E0EAF1
:100BE000F6E088E08583868381E080936606E0EA0C
:100BF000F9E0818185FFFDCF1092A009E0EAF9E0DC
:100C0000818186FFFDCFE0EAF9E081818064818304
:100C10008081E0EAF6E088E08583868381E0809346
:100C20006606E0EAF9E0818185FFFDCF81E28093ED
:100C3000A009E0EAF9E0818186FFFDCFE0EAF9E072
:100C40008181806481838081C0EAD6E018E01D83C1
:100C50008EE10E94FE041E8381E080936606E0EA36
:100C6000F9E0818185FFFDCF8FEA8093A009E0EA5A
:100C7000F9E0818186FFFDCFE0EAF9E081818064BF
:100C800081838081E0EAF6E088E08583868381E0E5
:100C900080936606E0EAF9E0818185FFFDCF80E47C
:100CA0008093A009E0EAF9E0818186FFFDCFE0EAC8
:100CB000F9E0818180648183808188E08093A5064A
:100CC000DF91CF911F9108956F927F928F929F92A3
:100CD000AF92BF92CF92DF92EF92FF920F931F934A
:100CE000CF93DF93B82EA62E681708F486C0842F02
:100CF0008F7782958F708061882EA0EAB6E088E0B9
:100D00000F2EF0E66F2EF6E07F2EF02DDD24D3942B
:100D1000E0EAF9E0942F9F70992E042F10E0E22E64
:100D2000F12C2B2D2F70206B16968C931697E301C8
:100D3000DE82918195FFFDCF2083918196FFFDCFCB
:100D4000918190649183908115968C931597169656
:100D50008C931697E301DE82918195FFFDCF80820F
:100D6000918196FFFDCF918190649183908115963A
:100D70008C93159716968C931697E301DE829181DA
:100D800095FFFDCF9082918196FFFDCF9181906478
:100D90009183908115968C9315979801D0E8BD9E0C
:100DA000200D311D1124B701620F731F62177307E5
:100DB00000F1A9014C5A514DEA01C990AE011696B5
:100DC0008C931697E301DD82918195FFFDCFC08260
:100DD000918196FFFDCF9181906491839081E30191
:100DE000DE8215968C9315972F5F3F4F621773071E
:100DF00018F7B394AB1408F094CFDF91CF911F9103
:100E00000F91FF90EF90DF90CF90BF90AF909F90A9
:100E10008F907F906F90089570E090E8899F600DAB
:100E2000711D1124FB01EC5AF14D8081213039F004
:100E300018F0223031F006C04095842303C0842B83
:100E400001C08427FB01EC5AF14D80830895CF92B5
:100E5000DF92EF92FF92962FE42FF0E020E8829F3E
:100E6000E00DF11D11246817F8F0EC5AF14D20E067
:100E700030E0C12CD12C7601408150E060E070E080
:100E8000022E04C0440F551F661F771F0A94D2F725
:100E9000C42AD52AE62AF72A8F5FE058FF4F285F39
:100EA0003F4F981748F703C0C12CD12C7601C701DA
:100EB000B601FF90EF90DF90CF9008950F931F93AE
:100EC000E42FF0E090E8899FE00DF11D11246817F0
:100ED00060F0EC5AF14D0083012F122F232F33279E
:100EE0008F5FE058FF4F6817B0F71F910F9108957B
:100EF000EF920F93FC016093B0004E29408B2223A8
:100F000039F06183002311F0658303C0668301C05B
:100F100062830F91EF9008951F920F920FB60F9278
:100F200011248F939F93809155308F5F809355301C
:100F300090915630891738F0109255308091543086
:100F40008F5F809354309F918F910F900FBE0F90C1
:100F50001F901895607CFC016583862F0895FC0125
:100F60006093B000108A6183668308954F925F9208
:100F70006F927F928F929F92AF92BF92CF92DF92A9
:100F8000EF92FF920F931F93CF936C0149015A0187
:100F9000662329F0FC0184818460848304C0FC0101
:100FA00084818B7F8483F601848182FF16C0D801FF
:100FB000C701689412F8B695A795979587951694EA
:100FC000D1F7B801A701032E36E1769567955795BD
:100FD00047953A95D1F7302D15C0D801C7016894CF
:100FE00013F8B695A795979587951694D1F7B801FC
:100FF000A701032E37E176956795579547953A9562
:10100000D1F7302D88159905AA05BB0508F4ACC0A9
:1010100084169506A606B70608F4A8C0F6018481D2
:1010200082FD04C0880C991CAA1CBB1CC801B70116
:10103000A50194010E941B0B2F3F3105410551056D
:1010400008F496C08FEF90E0A0E0B0E0C9EF05C0D3
:10105000281739074A075B0758F0880F991FAA1FFE
:10106000BB1FCD3F0CF48160CF5FC73089F755C0FF
:10107000CC230CF052C0D501C401880F991FAA1FC0
:10108000BB1F880F991FAA1FBB1F880F991FAA1F7C
:10109000BB1F27013801481A590A6A0A7B0ACE3F4A
:1010A00014F58DEF9FEF8C1B9109C7FD9395B3014C
:1010B000A20104C0440F551F661F771F8A95D2F7FF
:1010C000D501C401B695A795979587958A019B018F
:1010D000080F191F2A1F3B1FC901B801A501940160
:1010E0000E941B0B37C083E08C0FA501940104C044
:1010F000220F331F441F551F8A95D2F7DA01C90109
:10110000B695A79597958795BC01CD01640D751D82
:10111000861D971D0E941B0B1DC083E08C0FA5012F
:10112000940104C0220F331F441F551F8A95D2F724
:10113000DA01C901B695A79597958795BC01CD01B0
:101140006E0D7F1D801F911F0E941B0B21503109C6
:1011500041095109832F8F70C295C07FC82BF601BA
:10116000C783268380E01AC081E018C081E016C0E2
:10117000D501C401880F991FAA1FBB1F880F991F93
:10118000AA1FBB1F880F991FAA1FBB1F2701380169
:10119000481A590A6A0A7B0AC9EF83CFCF911F9177
:1011A0000F91FF90EF90DF90CF90BF90AF909F9006
:1011B0008F907F906F905F904F900895CF92DF92C5
:1011C000EF92FF920F931F93CF93DF93EC018C81EB
:1011D0008B7F8C83D901C801B695A7959795879584
:1011E000481759076A077B0778F46A017B01CC0C22
:1011F000DD1CEE1CFF1CC901B801A70196010E946D
:101200001B0B2150310902C020E030E0832F8F708A
:101210008F832E8380E0DF91CF911F910F91FF90FC
:10122000EF90DF90CF900895EF92FF920F931F936E
:10123000FC01862FBA01A9019581907C9034B9F008
:1012400018F4992331F019C0903851F0903C79F09E
:1012500014C09A01AB01682FCF010E94B6070EC0DF
:101260009A01AB0160E0CF010E94B60707C0980168
:101270008701CF010E94DE0801C081E01F910F911C
:10128000FF90EF900895FC014250423010F480E44A
:1012900001C080E06093B000808B61836683089515
:1012A000FC016093B000108A618365830895FC019E
:1012B0006D7F613011F492E001C090E02581297FBB
:1012C000422B492B45830895EF920F936894EE24A7
:1012D000E6F800E021E040E061E080EE97E00E9467
:1012E000780721E040E062E080EE97E00E94780716
:1012F00021E040E060E180E696E00E947807E12C82
:1013000021E040E060E280E696E00E94780720E07D
:1013100040E067E080E496E00E9478076894EE245D
:10132000E6F821E040E060EF80E096E00E94780778
:101330000F91EF900895EF920F930E9421010E9468
:10134000670380E00E946D018EE10E94FE04E12CA3
:1013500000E021E040E060E180E896E00E9478074C
:101360000F91EF900895FF920F931F93CF93DF9308
:10137000F82EC62F142FD22F261748F0202F4C2FCF
:10138000612F8F2D0E948201CF5FDC17B8F7DF91AC
:10139000CF911F910F91FF900895CF93DF93CDB719
:1013A000DEB7A897CDBFDEBF0E9464090E949B09EB
:1013B00082E00E946C030E949B0360E0880F0E9401
:1013C0008C0361E084E39EE20E94C404E090522E0C
:1013D000F12C0E949503E80EF11CE0925C30F09233
:1013E0005D3080E00E946C030E94950320915C3088
:1013F00030915D30A901480F511DCA0102968093BA
:101400005A3090935B301A828A81833010F50F2E08
:10141000FAE5CF2EF0E3DF2EF02DF60160814A8150
:101420009A8127E0260F440F842F880F880F480FDA
:101430004B5F892F880F982F990F990FE12C01E0AE
:10144000890F0E9418038A818F5F8A838A81833083
:1014500020F38FEF9FEF8D839E831F82188680E19C
:10146000809385060F2EF0E44F2EF6E05F2EF02DD0
:101470000F2E612CF6E07F2EF02D0F2EFEE38F2E27
:10148000FEE29F2EF02D5E01F9E0AF0EB11C0F2E93
:10149000FAE5CF2EF0E3DF2EF02DEE24E394F12CCD
:1014A0000F2EFCE22F2EFEE23F2EF02DF201808562
:1014B00089838D819E81998189278B8329818D8163
:1014C0009E81922F909589238C838D819E81019698
:1014D00021F08B81882309F469C089818770829506
:1014E000807FF30185838981809587708295807FD5
:1014F0008683898182FD05C020E33EE2422F532F7F
:1015000002C0422D532D898181FD05C060E37EE23A
:10151000262F372F02C0222D332D898180FD05C053
:10152000E0E3FEE28E2F9F2F02C0822D932D5F936A
:101530004F933F932F939F938F939F928F92BF923E
:10154000AF920E94510BECE5F0E3608180E00E94D5
:101550008C0361E0C5010E94C4041A828A81CDBF58
:10156000DEBF833018F52A8199818A81F601608176
:10157000880F382F330F330F830FA70102C0440F9A
:10158000551F2A95E2F79A01292301E009F400E0AA
:1015900026E0260F44E0480F6F5F8F5F0E94B3097B
:1015A0008A818F5F8A838A818330E8F28FE493ECAB
:1015B0000197F1F700C000008F81988501968F8315
:1015C000988718161906F4F48F819885019721F0F1
:1015D0008F819885029719F480E1809367068F8147
:1015E0009885029721F08F819885039719F480E2FE
:1015F000809367068F8198856AE070E00E94070BF0
:101600008F839887898190E08D839E834FCF97FB4E
:10161000072E16F4009407D077FD09D00E943D0BE9
:1016200007FC05D03EF4909581959F4F08957095E5
:1016300061957F4F0895A1E21A2EAA1BBB1BFD01E5
:101640000DC0AA1FBB1FEE1FFF1FA217B307E407A1
:10165000F50720F0A21BB30BE40BF50B661F771FF9
:10166000881F991F1A9469F76095709580959095D9
:101670009B01AC01BD01CF010895AA1BBB1B51E129
:1016800007C0AA1FBB1FA617B70710F0A61BB70BF2
:10169000881F991F5A95A9F780959095BC01CD0197
:1016A00008950F931F93CF93DF93CDB7DEB72E9797
:1016B000CDBFDEBF0E891F8986E08C8309831A8324
:1016C0008FEF9FE78D839E83AE01465E5F4F688DEF
:1016D000798DCE0101960E947A0BEF81F885E00F9B
:1016E000F11F10822E96CDBFDEBFDF91CF911F91EB
:1016F0000F9108952F923F924F925F926F927F9237
:101700008F929F92AF92BF92CF92DF92EF92FF9211
:101710000F931F93CF93DF93CDB7DEB72B97CDBF3A
:10172000DEBF6C017B018A01FC0116821782838176
:1017300081FFCCC1CE0101963C01F6019381F701F6
:1017400093FD859193FF81917F01882309F4BAC1AC
:10175000853239F493FD859193FF81917F01853224
:1017600029F4B60190E00E94940DE7CF912C212C32
:10177000312CFFE1F315D8F08B3279F038F4803258
:1017800079F08332A1F4232D20611DC08D3261F0E8
:10179000803369F4232D216016C0832D8260382E9A
:1017A000E32DE4603E2E2AC0F32DF8601DC037FC07
:1017B0002DC020ED280F2A3040F08E32B9F436FCCF
:1017C00081C1232D2064322E19C036FE06C08AE066
:1017D000989E200D1124922E11C0EAE02E9E200D1D
:1017E0001124222EF32DF0623F2E08C08C3621F4F6
:1017F000832D8068382E02C0883641F4F70193FDAE
:10180000859193FF81917F018111B3CF982F9F7DA7
:101810009554933028F40C5F1F4F9FE399830DC0BC
:10182000833631F0833771F0833509F059C021C018
:10183000F801808189830E5F1F4F88248394912C47
:10184000530113C02801F2E04F0E511CF801A08093
:10185000B18036FE03C0692D70E002C06FEF7FEFEC
:10186000C5010E94890D4C018201F32DFF773F2EA7
:1018700016C0280122E0420E511CF801A080B18060
:1018800036FE03C0692D70E002C06FEF7FEFC50127
:101890000E947E0D4C01F32DF0683F2E820133FC37
:1018A0001BC0822D90E088169906B0F4B60180E244
:1018B00090E00E94940D2A94F4CFF50137FC8591B5
:1018C00037FE81915F01B60190E00E94940D2110D6
:1018D0002A9421E0821A91088114910471F7E8C0DA
:1018E000843611F0893641F5F80137FE07C0608172
:1018F0007181828193810C5F1F4F08C0608171816B
:10190000072E000C880B990B0E5F1F4FF32DFF76EF
:101910003F2E97FF09C090958095709561957F4FF8
:101920008F4F9F4FF0683F2E2AE030E0A3010E94C6
:10193000D00D882E861845C0853731F4232D2F7E93
:10194000B22E2AE030E025C0932D997FB92E8F3634
:10195000C1F018F4883579F0B5C0803719F08837B0
:1019600021F0B0C0E92FE061BE2EB4FE0DC0FB2D0A
:10197000F460BF2E09C034FE0AC0292F2660B22EA3
:1019800006C028E030E005C020E130E002C020E1E0
:1019900032E0F801B7FE07C06081718182819381D6
:1019A0000C5F1F4F06C06081718180E090E00E5F88
:1019B0001F4FA3010E94D00D882E8618FB2DFF77A4
:1019C0003F2E36FE0DC0232D2E7FA22E891458F4F3
:1019D00034FE0BC032FC09C0832D8E7EA82E05C0BC
:1019E000B82CA32C03C0B82C01C0B92CA4FE0FC086
:1019F000FE01E80DF11D8081803321F49A2D997E3E
:101A0000A92E09C0A2FE06C0B394B39404C08A2DC7
:101A1000867809F0B394A3FC11C0A0FE06C0B214EE
:101A200088F4280C922C9B180EC0B21460F4B601F6
:101A300080E290E00E94940DB394F7CFB21418F4B2
:101A40002B1802C0982C212CA4FE10C0B60180E3F4
:101A500090E00E94940DA2FE17C0A1FC03C088E78D
:101A600090E002C088E590E0B6010CC08A2D86782F
:101A700059F0A1FE02C08BE201C080E2A7FC8DE21A
:101A8000B60190E00E94940D891438F4B60180E309
:101A900090E00E94940D9A94F7CF8A94F301E80D98
:101AA000F11D8081B60190E00E94940D8110F5CF68
:101AB000222009F442CEB60180E290E00E94940D0B
:101AC0002A94F6CFF6018681978102C08FEF9FEFAF
:101AD0002B96CDBFDEBFDF91CF911F910F91FF906D
:101AE000EF90DF90CF90BF90AF909F908F907F90BE
:101AF0006F905F904F903F902F900895FC0105905C
:101B0000615070400110D8F7809590958E0F9F1FFF
:101B10000895FC016150704001900110D8F7809544
:101B200090958E0F9F1F08950F931F93CF93DF9370
:101B3000FB01238121FD03C08FEF9FEF2CC022FF0B
:101B400016C046815781248135814217530744F4DA
:101B5000A081B1819D012F5F3F4F208331838C9302
:101B6000268137812F5F3F4F2683378314C08B0137
:101B7000EC01FB010084F185E02D1995892BE1F63C
:101B8000D80116968D919C911797019616968D9374
:101B90009C931797CE01DF91CF911F910F910895DC
:101BA000FA01AA27283051F1203181F1E8946F938E
:101BB0006E7F6E5F7F4F8F4F9F4FAF4FB1E03ED034
:101BC000B4E03CD0670F781F891F9A1FA11D680FD2
:101BD000791F8A1F911DA11D6A0F711D811D911D05
:101BE000A11D20D009F468943F912AE0269F11247A
:101BF0003019305D3193DEF6CF010895462F4770DE
:101C0000405D4193B3E00FD0C9F7F6CF462F4F7038
:101C1000405D4A3318F0495D31FD4052419302D096
:101C2000A9F7EACFB4E0A69597958795779567953C
:101C3000BA95C9F700976105710508959B01AC013C
:101C40000A2E06945795479537952795BA95C9F763
:101C5000620F731F841F951FA01D0895F894FFCF76
:101C60000A0F207E06200000000000000000000097
:101C70000000000000000000000000000000FC0D5B
:101C8000FC0D00000000000000000000000000004B
:101C90003C003C0000003C003C0000000000000054
:101CA00000002002F80F20022002F80F200200009E
:101CB0000000000000000000200250025C0E9002B4
:101CC000100100000000000000003000480C380245
:101CD0008801680618090006000000000000B80727
:101CE000440844084408B80700040003000000004A
:101CF00000000000000000001C00000000000000C8
:101D000000000000000000000000F0030C0C0210B6
:101D100000000000000000000000000000000210B1
:101D20000C0CF003000000000000000000000000A8
:101D300010005400380054001000000000000000A3
:101D40000000000100010001E00F0001000100019E
:101D5000000000000000000000000030001C000C2B
:101D60000000000000000000000000010001000170
:101D7000000100010001000100000000000000005F
:101D800000000000000C000C00000000000000003B
:101D900000000000000C0003C0003000080000003C
:101DA000000000000000F807040984084408240823
:101DB000F8070000000000000000000010080808FC
:101DC000FC0F0008000800000000000000000808E8
:101DD000040C040BC40838080008000000000000D0
:101DE00000000804040844084408B8070000000084
:101DF0000000000000008003400230020802FC0FD7
:101E000000020000000000000000780444082408DC
:101E100024082408C4070000000000000000F003AC
:101E20008804440844088404000300000000000003
:101E30000000040004080406840164001C00000083
:101E4000000000000000B8074408440844084408A3
:101E5000B80700000000000000007808840884082B
:101E600084044402F80100000000000000000000AB
:101E70000000C00CC00C00000000000000000000CA
:101E800000000030C01CC00C00000000000000007A
:101E900000000000000000018002800240044004B5
:101EA0002008000000000000000000004002400286
:101EB000400240024002400200000000000000001A
:101EC000200840044004800280020001000000005D
:101ED000000008000400840D4400380000000000E9
:101EE000000000000000C0072008D0175014D017D1
:101EF0001014E003000000000000000C80037001DB
:101F00000C0170018003000C000000000000FC0FB9
:101F1000440844084408B80700000000000000001E
:101F20000000F00308040408040804080804000082
:101F3000000000000000FC0F040804080408080466
:101F4000F00300000000000000000000FC0F440847
:101F500044084408040800000000000000000000DD
:101F6000FC0F8400840084000400000000000000D6
:101F70000000F0030804040884088408880F0000A7
:101F8000000000000000FC0F400040004000400046
:101F9000FC0F00000000000000000000040804081E
:101FA000FC0F040804080000000000000000040802
:101FB000040804080404FC03000000000000000002
:101FC0000000FC0F80004000A00010030C0C00007B
:101FD000000000000000FC0F0008000800080008D6
:101FE00000080000000000000000FC0F3000C000EE
:101FF000C0003000FC0F0000000000000000FC0FDB
:102000001800600080010006FC0F000000000000C6
:102010000000F0030804040804080804F0030000AA
:10202000000000000000FC0F04010401040188000E
:1020300070000000000000000000F0030804041815
:1020400004280824F0230000000000000000FC0F1A
:102050008400840084014802300C0000000000006D
:1020600000001804240844084408840808070000F5
:10207000000000000000040004000400FC0F040045
:1020800004000400000000000000FC070008000835
:1020900000080008FC0700000000000000000C0021
:1020A000F000000700080007F0000C00000000002E
:1020B0000000FC01000EC003C003000EFC01000084
:1020C000000000000000040818062001C0002001E4
:1020D0001806040800000000000004001800E000DA
:1020E000000FE000180004000000000000000408D9
:1020F000040E0409C40834080C080008000000009D
:102100000000FE1F0210021000000000000000008E
:1021100000000000000000000C003000C0000003C0
:10212000000C000000000000000002100210FE1F62
:10213000000000000000000000000000000000009F
:10214000100008000400080010000000000000005B
:102150000000000000080008000800080008000057
:102160000000000000000000000004000800100053
:102170000000000000000000000000062009200907
:1021800020092005C00F0008000000000000FE0F1D
:102190004008200820082004C003000000000000C0
:1021A0000000C007200820082008200820080000A0
:1021B00000000000000080034004200820082008E0
:1021C0002008FE0F000000000000C00720092009C1
:1021D000200920092009C009000000000000200893
:1021E0002008F80F2408240824080000000000003C
:1021F0000000C0072028204820482044E03F00007D
:10220000000000000000FE0F400020002000200021
:10221000C00F00000000000000000000200820089F
:10222000E40F00080008000000000000000000406B
:10223000204020402020E41F00000000000000009B
:102240000000FE0F00018001400220040008000091
:10225000000000000000040804080408FC0F000847
:1022600000080008000000000000E00F400020000F
:10227000C00F2000E00F0000000000000000E00F91
:102280004000200020002000C00F000000000000DF
:102290000000C0072008200820082008C007000010
:1022A000000000000000E07F40082008200820080F
:1022B000C0070000000000000000C0072008200840
:1022C00020082008E07F0000000000000000200837
:1022D0002008C00F40082008200000000000000077
:1022E0000000C0082009200920092009200600005C
:1022F00000000000000020002000F0072008200857
:1023000020080000000000000000E00700080008AE
:102310000008E007000800000000000000002000A6
:10232000C0000003000C0003C000200000000000FB
:102330000000E001000E80018001000EE0010000BD
:102340000000000000000000200CC0020001C002DC
:10235000200C00000000000000002000C00000670A
:1023600000180007C0002000000000000000200846
:10237000200C200A2009A0086008000000000000CE
:102380000000000000000000CC0C32130000000030
:102390000000000000000000000000003E1F0000E0
:1023A00000000000000000000000000000003213E8
:1023B000CC0C00000000000000000000000008003D
:1023C00004000400080010001000080000000000D5
:1023D0000000060A207E78270000000000000000B0
:1023E0000000000000000000BE000000000000002F
:1023F00000000E0000000E000000000014003E006F
:1024000014003E00140000004C009200FF019200F6
:102410006400000086006A005400AC00C2000000A6
:102420006C009200AA004600A0000000000000001E
:102430000E0000000000000000000000FE0001018E
:102440000000000000000101FE000000000000008C
:1024500014001C003E001C001400000010001000BE
:102460007C0010001000000000000002C00100000D
:10247000000000000000100010001000000000002C
:1024800000000000C0000000000000000001C001CA
:1024900060001800060001007C00A20092008A0083
:1024A0007C00000004008400FE00800000000000AA
:1024B0008400C200A20092008C0000004400820050
:1024C000920092006C000000300028002400FE0002
:1024D000200000004E008A008A008A00720000007E
:1024E0007C00920092009200600000000200020056
:1024F000E20012000E0000006C00920092009200B8
:102500006C0000000C009200920092007C00000021
:1025100000000000D80000000000000000000002E1
:10252000D00100000000000000001000280044005E
:102530008200000028002800280028002800000051
:102540000000820044002800100000000400020087
:10255000E20012000C0000007C008200BA00AA0019
:10256000BC000000FC00220022002200FC00000051
:10257000FE009200920092006C0000007C0082003D
:102580008200820044000000FE008200820082007F
:102590007C000000FE009200920092008200000089
:1025A000FE00120012001200020000007C008200F7
:1025B0008200920074000000FE0010001000100065
:1025C000FE00000082008200FE0082008200000007
:1025D00060008000800080007E000000FE00380067
:1025E0006C00C60082000000FE00800080008000B9
:1025F00080000000FE000C0018000C00FE0000002F
:10260000FE000C0010006000FE0000007C00820054
:10261000820082007C000000FE0012001200120006
:102620000C0000007C008200C20082007C010000DF
:10263000FE00120012001200EC0000004C0092009C
:10264000920092006400000002000200FE000200FE
:10265000020000007E008000800080007E000000FC
:1026600006003800C0003800060000007E00800030
:10267000700080007E00000082006C0038006C005A
:102680008200000002000C00F8000C0002000000B4
:10269000C200A20092008A00860000000000000034
:1026A000FF01010100000000010007000C003000E4
:1026B000C000000100000101FF0100000000000057
:1026C00008000400020004000800000000020002EC
:1026D00000020002000200020000010002000000EF
:1026E00000000000E800A800A800A800F00000001A
:1026F000FE008800880088007000000070008800DC
:102700008800880050000000700088008800880061
:10271000FE0000007000A800A800A800B0000000A3
:1027200000008800FE008A0002000000700088029D
:1027300088028802F8010000FE0008000800080076
:10274000F000000000008800FA0080000000000097
:1027500008020802FA01000000000000FE0020004C
:10276000300048008800000082008200FE008000E7
:1027700080000000F8000800F8000800F8000000E1
:10278000F800080008000800F00000007000880051
:102790008800880070000000F80388008800880026
:1027A000700000007000880088008800F8030000B6
:1027B000F80008000800080018000000B800A80091
:1027C000A800A800E8000000000008007E008800C3
:1027D000880000007800800080008000F800000081
:1027E0000800700080007000080000007800800081
:1027F00078008000780000008800D8002000D80011
:10280000880000007800800280028002F801000049
:102810008800C800A8009800880000000000100090
:10282000EE0001010000000000000000FF010000B8
:102830000000000000000101EE0010000000000098
:102840000400020004000800040000000607207EC7
:10285000F22B00000000000000005F0000000007F5
:1028600000070000147F147F1400242A7F2A12001E
:102870002313086462003649552250000005030006
:102880000000001C224100000041221C0000082A18
:102890001C2A080008083E0808000050300000000C
:1028A0000808080808000060600000002010080404
:1028B00002003E5149453E0000427F400000426117
:1028C000514946002141454B31001814127F100038
:1028D0002745454539003C4A494930000171090501
:1028E0000300364949493600064949291E00003689
:1028F0003600000000563600000000081422410097
:102900001414141414004122140800000201510987
:102910000600324979413E007E1111117E007F4947
:10292000494936003E41414122007F4141221C007D
:102930007F49494941007F09090101003E41415158
:1029400032007F0808087F0000417F4100002040DE
:10295000413F01007F08142241007F404040400079
:102960007F0204027F007F0408107F003E41414146
:102970003E007F09090906003E4151215E007F09A2
:102980001929460046494949310001017F010100EA
:102990003F4040403F001F2040201F007F20182064
:1029A0007F0063140814630003047804030061517A
:1029B0004945430000007F41410002040810200007
:1029C00041417F00000004020102040040404040F9
:1029D00040000001020400002054545478007F4855
:1029E00044443800384444442000384444487F007C
:1029F000385454541800087E090102000814545435
:102A00003C007F080404780000447D400000204022
:102A1000443D0000007F1028440000417F4000003A
:102A20007C04180478007C0804047800384444448A
:102A300038007C1414140800081414187C007C0856
:102A400004040800485454542000043F444020002B
:102A50003C4040207C001C2040201C003C4030407A
:102A60003C004428102844000C5050503C00446462
:102A7000544C440000083641000000007F00000074
:102A80000041360800000201020402004F4E2000FF
:102A90004F4646004750494F2074657374005331C8
:102AA0003D25732053323D25732053333D2573005C
:102AB0000000002008200C200A2009A0086008005F
:102AC00000000000000000000000000000CC0C32FC
:102AD00013000000000000000000000000000000E3
:102AE000003E1F0000000000000000000000000089
:102AF0000000003213CC0C000000000000000000B9
:102B00000000000800040004000800100010000885
:102B100000000000000000060A207E8B2700000055
:102B200000000000000000000000000000BE0000E7
:102B3000000000000000000E0000000E0000000079
:102B40000014003E0014003E00140000004C0092EF
:102B500000FF0192006400000086006A005400AC8F
:102B600000C20000006C009200AA004600A0000015
:102B700000000000000E0000000000000000000047
:102B800000FE0001010000000000000101FE000045
:102B9000000000000014001C003E001C0014000097
:102BA00000100010007C0010001000000000000069
:102BB00002C0010000000000000000100010001022
:102BC000000000000000000000C000000000000045
:102BD000000001C00160001800060001007C00A296
:102BE0000092008A007C00000004008400FE008047
:102BF00000000000008400C200A20092008C0000CF
:102C00000044008200920092006C00000030002816
:102C1000002400FE00200000004E008A008A008A86
:102C200000720000007C00920092009200600000A0
:102C30000002000200E20012000E0000006C009290
:102C400000920092006C0000000C00920092009232
:102C5000007C00000000000000D800000000000020
:102C60000000000002D00100000000000000001081
:102C700000280044008200000028002800280028C6
:102C8000002800000000008200440028001000001E
:102C90000004000200E20012000C0000007C008230
:102CA00000BA00AA00BC000000FC002200220022A2
:102CB00000FC000000FE009200920092006C0000F8
:102CC000007C0082008200820044000000FE00823E
:102CD00000820082007C000000FE009200920092C0
:102CE0000082000000FE001200120012000200002C
:102CF000007C0082008200920074000000FE001040
:102D00000010001000FE00000082008200FE008221
:102D1000008200000060008000800080007E0000D3
:102D200000FE0038006C00C60082000000FE00803B
:102D3000008000800080000000FE000C0018000CE5
:102D400000FE000000FE000C0010006000FE00000D
:102D5000007C008200820082007C000000FE0012E5
:102D600000120012000C0000007C008200C20082F1
:102D7000007C010000FE00120012001200EC0000B6
:102D8000004C0092009200920064000000020002D9
:102D900000FE000200020000007E00800080008033
:102DA000007E00000006003800C000380006000069
:102DB000007E008000700080007E00000082006CB9
:102DC0000038006C008200000002000C00F8000CCB
:102DD0000002000000C200A20092008A00860000EB
:102DE0000000000000FF01010100000000010007D9
:102DF000000C003000C000000100000101FF0100D4
:102E000000000000000800040002000400080000A8
:102E100000000200020002000200020002000001A5
:102E2000000200000000000000E800A800A800A8C0
:102E300000F0000000FE008800880088007000009C
:102E40000070008800880088005000000070008832
:102E50000088008800FE0000007000A800A800A8FC
:102E600000B000000000008800FE008A00020000A0
:102E7000007000880288028802F8010000FE000845
:102E80000008000800F000000000008800FA008040
:102E9000000000000008020802FA01000000000023
:102EA00000FE002000300048008800000082008200
:102EB00000FE00800080000000F8000800F8000814
:102EC00000F8000000F800080008000800F000000A
:102ED00000700088008800880070000000F80388F7
:102EE000008800880070000000700088008800885A
:102EF00000F8030000F800080008000800180000AF
:102F000000B800A800A800A800E800000000000821
:102F1000007E00880088000000780080008000802B
:102F200000F8000000080070008000700008000039
:102F3000007800800078008000780000008800D8C9
:102F4000002000D800880000007800800280028005
:102F500002F80100008800C800A80098008800005E
:102F60000000001000EE0001010000000000000061
:102F700000FF0100000000000000000101EE001051
:102F8000000000000004000200040008000400002B
:102F9000000607207E052C00000000000000005FF6
:102FA000000000000700070000147F147F140024B5
:102FB0002A7F2A12002313086462003649552250E2
:102FC00000000503000000001C2241000000412217
:102FD0001C0000082A1C2A080008083E08080000F7
:102FE0005030000000080808080800006060000079
:102FF000002010080402003E5149453E0000427F77
:103000004000004261514946002141454B310018C2
:1030100014127F10002745454539003C4A49493084
:10302000000171090503003649494936000649493E
:10303000291E000036360000000056360000000051
:10304000081422410014141414140041221408001E
:1030500000020151090600324979413E007E1111FA
:10306000117E007F49494936003E41414122007F9F
:103070004141221C007F49494941007F0909010162
:10308000003E41415132007F0808087F0000417F27
:103090004100002040413F01007F08142241007F91
:1030A00040404040007F0204027F007F0408107F00
:1030B000003E4141413E007F09090906003E415161
:1030C000215E007F0919294600464949493100011E
:1030D000017F0101003F4040403F001F2040201F72
:1030E000007F2018207F0063140814630003047815
:1030F00004030061514945430000007F4141000243
:10310000040810200041417F000000040201020475
:1031100000404040404000000102040000205454A0
:103120005478007F484444380038444444200038F0
:103130004444487F00385454541800087E09010262
:1031400000081454543C007F080404780000447DB7
:103150004000002040443D0000007F102844000053
:10316000417F4000007C04180478007C0804047847
:10317000003844444438007C141414080008141423
:10318000187C007C080404080048545454200004AF
:103190003F444020003C4040207C001C2040201C3C
:1031A000003C4030403C004428102844000C505063
:1031B000503C004464544C44000008364100000078
:1031C000007F0000000041360800000201020402F6
:1031D00000616463566363203D20253464006164AC
:1031E00063565263203D20253464005278203D20F0
:1031F00025366C64206F6D002020202020200000E8
:10320000FFFFFFFFFFFFFFFFFFFFFFFFFFFFFFFFCE
:10321000FFFFFFFFFFFFFFFFFFFFFFFFFFFFFFFFBE
:10322000FFFFFFFFFFFFFFFFFFFFFFFFFFFFFFFFAE
:10323000FFFFFFFFFFFFFFFFFFFFFFFFFFFFFFFF9E
:020000024000BC
:00000001FF
